:020000040000FA
:10000000A82620209D010000A1010000A3010000FE
:1000100000000000000000000000000000000000E0
:10002000000000000000000000000000A50100002A
:100030000000000000000000A7010000A90100006E
:10004000AB010000AB010000AB010000AB01000000
:10005000AB010000AB010000AB010000AB010000F0
:10006000AB010000AB010000AB010000AB010000E0
:10007000AB010000AB010000AB010000AB010000D0
:10008000AB010000AB010000AB010000AB010000C0
:10009000AB010000AB010000AB010000AB010000B0
:1000A000AB010000AB010000AB010000AB010000A0
:1000B000AB010000AB010000AB010000AB01000090
:1000C00000F002F800F05AF812A030C808382418DE
:1000D0002D18AC4201D100F051F80FCCA246AB462E
:1000E0000CA730CF2D1B083F3F197C427F1E544484
:1000F0002D090426F441641EAC4201D300F03EF801
:100100000126334200D0FB1A3343984754465D46DC
:10011000DFE70000E42C0000042D000000000000D8
:10012000103A02D378C878C1FAD8520701D330C840
:1001300030C101D504680C60704700000000000069
:100140007047000000000000002300240025002666
:10015000103A01D378C1FBD8520700D330C100D583
:100160000B60704710B5752902D100F079F810BD09
:10017000002010BD1FB51FBD10B510BD00F04FFA17
:100180001146FFF7F7FF02F0B5F800F067FA03B485
:10019000FFF7F2FF03BC00F06DFA000006480047CD
:1001A000FEE7FEE7FEE7FEE7FEE7FEE70348044959
:1001B000024A044B70470000C1000000A80620203E
:1001C000A8262020A80620200FB41CB5084B06AA9C
:1001D0007B4469460090059800F0F5F9044600203C
:1001E000694600F003FA20461CBC08BC04B018475E
:1001F00019040000F8B50E4604460020206220468F
:10020000E1688847002829D0252802D06268A168C3
:1002100020E0E16820460027884705001ED02846D8
:100220004138192802D80127FF02203532462046DE
:1002300027602946FFF796FF002808D0012804D040
:10024000F61DF608F6000836D9E7361DD7E76268CE
:100250002846A1689047206A401CCFE7206AF8BD75
:10026000F7B5002575291068009914A611D0C0466D
:10027000C046002802DA404211A608E00099096849
:100280008A0701D50FA602E0490704D50EA601256D
:1002900001E0C046C046009F0024243704E000F07F
:1002A000AAF930313955641C0028F8D12B46324662
:1002B0002146009800F029F9FEBD00000000000072
:1002C0002D0000002B0000002000000001E004C011
:1002D000091F0429FBD28B0701D50280801CC907A6
:1002E00000D00270704700290BD0C30702D0027003
:1002F000401C491E022904D3830702D50280801CBA
:10030000891EE3E70022EEE70022DFE7002203096F
:100310008B4273D3030A8B4258D3030B8B423CD3DB
:10032000030C8B4221D312E003460B437FD40022FF
:1003300043088B4274D303098B425FD3030A8B4279
:1003400044D3030B8B4228D3030C8B420DD30902F9
:10035000FF2212BA030C8B4202D31212090265D09B
:10036000030B8B4219D300E0090AC30B8B4201D364
:10037000CB03C01A5241830B8B4201D38B03C01AAB
:100380005241430B8B4201D34B03C01A5241030B22
:100390008B4201D30B03C01A5241C30A8B4201D3D3
:1003A000CB02C01A5241830A8B4201D38B02C01A7E
:1003B0005241430A8B4201D34B02C01A5241030AF5
:1003C0008B4201D30B02C01A5241CDD2C3098B42DA
:1003D00001D3CB01C01A524183098B4201D38B0157
:1003E000C01A524143098B4201D34B01C01A5241FA
:1003F00003098B4201D30B01C01A5241C3088B423F
:1004000001D3CB00C01A524183088B4201D38B0029
:10041000C01A524143088B4201D34B00C01A5241CB
:10042000411A00D201465241104670475DE0CA0FA2
:1004300000D04942031000D3404253409C46002262
:1004400003098B422DD3030A8B4212D38901FC226C
:1004500012BA030A8B420CD3890192118B4208D342
:10046000890192118B4204D389013AD0921100E0A4
:100470008909C3098B4201D3CB01C01A52418309B8
:100480008B4201D38B01C01A524143098B4201D3E5
:100490004B01C01A524103098B4201D30B01C01A10
:1004A0005241C3088B4201D3CB00C01A524183088A
:1004B0008B4201D38B00C01A5241D9D243088B42E0
:1004C00001D34B00C01A5241411A00D20146524199
:1004D000104663465B1001D34042002B00D54942D1
:1004E000704763465B1000D3404201B504490028C1
:1004F00002DC491C084000E00846C046C04602BD78
:10050000FFFFFF7F704770477047FFB504460D46F9
:1005100081B0243000902168880604D51022E0695B
:100520009143216000E00120A84201DD471B00E06B
:1005300000270498A1697A191018081AA061207878
:10054000C00602D42046C046C046002608E00398F4
:100550006268A168805D9047206A401C761C20621A
:1005600004988642F3DB2078C0060AD52046C046B0
:10057000C04606E06268A16830209047206A401CAF
:10058000206238467F1E0028F4DC07E0009862688D
:10059000A168405D9047206A401C206228466D1E7D
:1005A0000028F3DC2046C046C0462078000602D56D
:1005B000022005B0F0BD0120FBE7000001694A1CE4
:1005C00002610878704700B58FB002910021059153
:1005D0000549019379440391114604906846FFF759
:1005E00009FE0FB000BD0000E5FFFFFF0A681070B4
:1005F000521C0A60704701468008081A0209101848
:10060000020A1018020C1018C008820012185200BA
:10061000891A01E0401C0A390A29FBD27047754645
:1006200000F024F8AE46050069465346C008C000F5
:10063000854618B020B5FFF7B9FD60BCB646002668
:100640000027C0C5C0C5C0C5C0C5C0C5C0C5C0C5E0
:10065000C0C5403D490849008D46704710B5044665
:10066000C046C0462046FFF792FD10BD00487047C7
:100670006000202001491820ABBEFEE726000200E2
:1006800070470000B0B50A78032313400B4A845822
:100690000B4D2540EB18A92424061B198350072273
:1006A00012064B6813401124240205599543EA1899
:1006B0000251001949780161B0BDC0460808000028
:1006C000FCFFFF00811E091F00BFFCD27047000025
:1006D00070B58A6811231B02C458184D25408C88B8
:1006E0001443174A22405219C250C2180B681469A9
:1006F000144D25408C891C438B7B2343124C1C409A
:10070000631913610B694C698922520185580F4E98
:100710002E40CD7B1D4325430B8B2B430C4C1C40A3
:10072000A31983508B7E898B19430A4B0B40801889
:100730000169094A0A40D118016170BDFFFEFEFF40
:1007400000010100FCFCFFFE03030001FEFCFCFEB7
:1007500001030301010F0000FEF0FFFFB0B5536875
:1007600094681C4393892343146955691C43D389B6
:100770002B431B0123430C01041909256D0263510E
:10078000137852781A43BF231A408900401803494E
:1007900044589C43A2184250B0BDC04610110000FE
:1007A00012490A68124802604A6842608A68826098
:1007B000CA68C2600A6902614A6942618A698261E3
:1007C000CA69C2610A6A02624A6A42628A6A8262CB
:1007D000CA6AC2620A6B02634A6B42638A6B8263B3
:1007E000C96B7B4A0264C1637047C0460000C441C4
:1007F00000002020B0B51122120283580C4C1C407E
:100800000B894D881D438B792B430A4D1D4063197D
:100810008350CB798C881C43097821435D239B004E
:100820001940801842689A4351184160B0BDC046D3
:1008300080CCFFFF7F33000010B501221203831824
:100840000C785C604978815010BD0000F0B585B02F
:10085000044601252902394E3068049188433060EE
:100860005A480068006C5A49884201D0FFF798FF47
:10087000A9036C4802680A4208D102680A4205D1FD
:1008800002680A4202D102680A42F3D0617E29401E
:10089000B269AA435118B1612021615C0322114061
:1008A000F36993435918F16125490A6805230B60E0
:1008B000636A1F6837625B687362072313400B60CB
:1008C000E1697F221202F36993434906490C5918E2
:1008D000F161276803956568A1680091E368216963
:1008E000019161690291B269164911403A07120BF0
:1008F0002D03ADB2AA181A43009B1B071B0D13430F
:10090000019A1343029A1343227E1A430E4B13405B
:100910005918B1613168049A114331600399490251
:1009200002680A4208D102680A4205D102680A42F6
:1009300002D102680A42F3D005B0F0BD08010B40B5
:10094000001340408D00F0FF72FF0F00F0B581B042
:1009500014460D4606461D480068006C1C49884236
:1009600001D0FFF71DFF1B480246083A136801211A
:100970008B43136003231B031E4007689F43BB196F
:1009800003600368FF26B343EDB25B19036013688D
:100990000B4313600268002C12D00B071A4302604D
:1009A000080220490A68024208D10A68024205D1B9
:1009B0000A68024202D10A680242F3D001B0F0BDD7
:1009C00009078A43026001B0F0BDC0464400202000
:1009D000FECAFECA10010B4010B511498860012201
:1009E0005305104804681C4208D104681C4205D114
:1009F00004681C4202D104681C42F3D012040B6844
:100A000013430B600168C90608D40168C90605D400
:100A10000168C90602D40168C906F3D510BDC046F5
:100A200004010B4004020B4070B53C4A82184B682D
:100A300053603B4BC3180878222857D8840001A57F
:100A40002C59A746E30A0000ED0A0000E30A000063
:100A5000ED0A0000ED0A0000ED0A0000ED0A0000BA
:100A6000ED0A0000ED0A0000ED0A0000ED0A0000AA
:100A7000ED0A0000ED0A0000ED0A0000ED0A00009A
:100A8000ED0A0000D10A0000ED0A0000D10A0000C2
:100A9000ED0A0000ED0A0000ED0A0000ED0A00007A
:100AA000ED0A0000ED0A0000ED0A0000ED0A00006A
:100AB000ED0A0000ED0A0000ED0A0000ED0A00005A
:100AC000ED0A0000D10A0000ED0A0000D10A000082
:100AD000032424071568A543012464072C19146016
:100AE00004E0032424071568A54315600C69D4604D
:100AF000CC680C4D25401C680B4E264074191C60B8
:100B000013680A4C1C401460097A01433F200140DD
:100B1000136883435818106070BDC0460418000065
:100B200030180000777702008888FDFF7F00FFFF04
:100B300010B50122120383180C789C604B78835007
:100B40008978014A815010BD0C110000B0B5112206
:100B5000120283580124A34383508B780C881C43D2
:100B60008B882343094C1C408358094D1D402B1989
:100B700083508B79CC791C43097A21437E23194019
:100B8000801842689A4351184160B0BD1867000050
:100B9000E798FDFF10B50122120383180C789C60C2
:100BA0004978815010BD00000D4A80180268120675
:100BB00008D50268120605D50268120602D5026839
:100BC0001206F3D481610168C90708D00168C9071A
:100BD00005D00168C90702D00168C907F3D1704781
:100BE00008110000F0B581B001210802490200227D
:100BF000E44BE54C03E0521C082A00D19CE018614C
:100C000019612568ED0608D52568ED0605D5256826
:100C1000ED0602D52568ED06F3D4B025154325630E
:100C20002568ED0608D52568ED0605D52568ED068D
:100C300002D52568ED06F3D41960186018611961B2
:100C40002568ED0608D52568ED0605D52568ED066D
:100C500002D52568ED06F3D4022525632568ED0647
:100C600008D52568ED0605D52568ED0602D5256869
:100C7000ED06F3D419601860186119612568ED0656
:100C800008D52568ED0605D52568ED0602D5256849
:100C9000ED06F3D4102525632568ED0608D52568F3
:100CA000ED0605D52568ED0602D52568ED06F3D4D9
:100CB00019601860002505E019601860AD1C6DB260
:100CC000002D98D4186019612668F60608D52668A4
:100CD000F60605D52668F60602D52668F606F3D48C
:100CE000002626632768FF0608D52768FF0605D576
:100CF0002768FF0602D52768FF06F3D4196018603D
:100D0000186019612768FF0608D52768FF0605D512
:100D10002768FF0602D52768FF06F3D426632668F6
:100D2000F606C9D52668F606C6D52668F606C3D5E2
:100D30002668F606F3D4BFE7412001010248FFF719
:100D4000E3FA01B0F0BDC046C0002020F0B58CB081
:100D5000089207900693994200D3F5E00C46119B48
:100D60000898079A811A01200091014002910E21F2
:100D70001140491C05910B93591C0A91511C060204
:100D8000470210091030049000227E4B7E4DC8B2FD
:100D9000019005E0099C641C0698844200D1D3E0D0
:100DA0001E611F612868C00608D52868C00605D5E1
:100DB0002868C00602D52868C006F3D42046B030A3
:100DC000C0B228632868C00608D52868C00605D5C3
:100DD0002868C00602D52868C006F3D41F601E60CC
:100DE0001E611F612868C00608D52868C00605D5A1
:100DF0002868C00602D52868C006F3D40498286382
:100E00002868C00608D52868C00605D52868C00629
:100E100002D52868C006F3D41F601E601E611F61E2
:100E20002868C00608D52868C00605D52868C00609
:100E300002D52868C006F3D4059828632868C00640
:100E400008D52868C00605D52868C00602D52868D8
:100E5000C006F3D41F601E60089807998842099461
:100E600098D902980028039220D00B98039A805CAE
:100E70001E601F612968C90608D52968C90605D5FD
:100E80002968C90602D52968C906F3D428632868E9
:100E9000C00608D52868C00605D52868C00602D552
:100EA0002868C006F3D41F601E60521C0898019980
:100EB000884200D16EE7009803994018C0B206E05E
:100EC0001F601E60921CD1B2884200D162E70B996C
:100ED000895C1E601F612C68E40608D52C68E40656
:100EE00005D52C68E40602D52C68E406F3D4296302
:100EF0002968C90608D52968C90605D52968C9061B
:100F000002D52968C906F3D41F601E600A99895C5E
:100F10001E601F612C68E40608D52C68E40605D520
:100F20002C68E40602D52C68E406F3D4296329680A
:100F3000C906C5D52968C906C2D52968C906BFD55D
:100F40002968C906F3D4BBE70CB0F0BDF0B583B097
:100F50000127FD05094E3560094C2046FFF7B2FB1D
:100F600035612046FFF7AEFB35603C02054D2C6134
:100F700002977E022E61044F08E0C04690320A407C
:100F800000127A0090520A40109146403868C0061C
:100F900008D53868C00605D53868C00602D5386857
:100FA000C006F3D4AE2038633868C00608D5386868
:100FB000C00605D53868C00602D53868C006F3D427
:100FC0002E602C602C612E613868C00608D5386808
:100FD000C00605D53868C00602D53868C006F3D407
:100FE000022038633968C90608D53968C90605D5AD
:100FF0003968C90602D53968C906F3D42E602C6059
:101000002C612E613968C90608D53968C90605D52D
:101010003968C90602D53968C906F3D4102101918F
:1010200039633968C90608D53968C90605D53968EC
:10103000C90602D53968C906F3D42E602C602C612C
:101040002E613968C90608D53968C90605D53968D9
:10105000C90602D53968C906F3D440223A63396813
:10106000C90608D53968C90605D53968C90602D543
:101070003968C906F3D42E602C602C612E61396862
:10108000C90608D53968C90605D53968C90602D523
:101090003968C906F3D4812139633968C90608D58E
:1010A0003968C90605D53968C90602D53968C9063F
:1010B000F3D42E602C602C612E613968C90608D5E6
:1010C0003968C90605D53968C90602D53968C9061F
:1010D000F3D4CF2139633968C90608D53968C90600
:1010E00005D53968C90602D53968C906F3D42E601A
:1010F0002C602C612E613968C90608D53968C9068B
:1011000005D53968C90602D53968C906F3D4A121C5
:1011100039633968C90608D53968C90605D53968FB
:10112000C90602D53968C906F3D42E602C602C613B
:101130002E613968C90608D53968C90605D53968E8
:10114000C90602D53968C906F3D4C821396339689C
:10115000C90608D53968C90605D53968C90602D552
:101160003968C906F3D42E602C602C612E61396871
:10117000C90608D53968C90605D53968C90602D532
:101180003968C906F3D4A62139633B68DB0608D564
:101190003B68DB0605D53B68DB0602D53B68DB0612
:1011A000F3D42E602C602C612E613B68DB0608D5E1
:1011B0003B68DB0605D53B68DB0602D53B68DB06F2
:1011C000F3D4A8233B633B68DB0608D53B68DB060A
:1011D00005D53B68DB0602D53B68DB06F3D42E6001
:1011E0002C602C612E613B68DB0608D53B68DB0672
:1011F00005D53B68DB0602D53B68DB06F3D43F230D
:101200003B633B68DB0608D53B68DB0605D53B68DE
:10121000DB0602D53B68DB06F3D42E602C602C6124
:101220002E613B68DB0608D53B68DB0605D53B68CD
:10123000DB0602D53B68DB06F3D4D3233B633B6874
:10124000DB0608D53B68DB0605D53B68DB0602D527
:101250003B68DB06F3D42E602C602C612E613B686A
:10126000DB0608D53B68DB0605D53B68DB0602D507
:101270003B68DB06F3D400233B633B68DB0608D501
:101280003B68DB0605D53B68DB0602D53B68DB0621
:10129000F3D42E602C602C612E613B68DB0608D5F0
:1012A0003B68DB0605D53B68DB0602D53B68DB0601
:1012B000F3D4D5233B633B68DB0608D53B68DB06EC
:1012C00005D53B68DB0602D53B68DB06F3D42E6010
:1012D0002C602C612E613B68DB0608D53B68DB0681
:1012E00005D53B68DB0602D53B68DB06F3D48023DB
:1012F0003B633B68DB0608D53B68DB0605D53B68EE
:10130000DB0602D53B68DB06F3D42E602C602C6133
:101310002E613B68DB0608D53B68DB0605D53B68DC
:10132000DB0602D53B68DB06F3D4D9233B633B687D
:10133000DB0608D53B68DB0605D53B68DB0602D536
:101340003B68DB06F3D42E602C602C612E613B6879
:10135000DB0608D53B68DB0605D53B68DB0602D516
:101360003B68DB06F3D4F1233B633B68DB0608D51F
:101370003B68DB0605D53B68DB0602D53B68DB0630
:10138000F3D42E602C602C612E613B68DB0608D5FF
:101390003B68DB0605D53B68DB0602D53B68DB0610
:1013A000F3D4DA233B633B68DB0608D53B68DB06F6
:1013B00005D53B68DB0602D53B68DB06F3D42E601F
:1013C0002C602C612E613B68DB0608D53B68DB0690
:1013D00005D53B68DB0602D53B68DB06F3D4122358
:1013E0003B633B68DB0608D53B68DB0605D53B68FD
:1013F000DB0602D53B68DB06F3D42E602C602C6143
:101400002E613B68DB0608D53B68DB0605D53B68EB
:10141000DB0602D53B68DB06F3D4DB233B633B688A
:10142000DB0608D53B68DB0605D53B68DB0602D545
:101430003B68DB06F3D42E602C602C612E613B6888
:10144000DB0608D53B68DB0605D53B68DB0602D525
:101450003B68DB06F3D43A633A68D20608D53A68AB
:10146000D20605D53A68D20602D53A68D206F3D438
:101470002E602C602C612E613A68D20608D53A683D
:10148000D20605D53A68D20602D53A68D206F3D418
:1014900020223A633A68D20608D53A68D20605D5C2
:1014A0003A68D20602D53A68D206F3D42E602C6090
:1014B0002C612E613A68D20608D53A68D20605D565
:1014C0003A68D20602D53A68D206F3D4386338684F
:1014D000C00608D53868C00605D53868C00602D5EC
:1014E0003868C006F3D42E602C602C612E613868F9
:1014F000C00608D53868C00605D53868C00602D5CC
:101500003868C006F3D48D2038633868C00608D523
:101510003868C00605D53868C00602D53868C006E8
:10152000F3D42E602C602C612E613868C00608D57B
:101530003868C00605D53868C00602D53868C006C8
:10154000F3D4142038633868C00608D53868C0065C
:1015500005D53868C00602D53868C006F3D42E60B9
:101560002C602C612E613868C00608D53868C0062A
:1015700005D53868C00602D53868C006F3D4A42063
:1015800038633868C00608D53868C00605D538689D
:10159000C00602D53868C006F3D42E602C602C61DA
:1015A0002E613868C00608D53868C00605D5386889
:1015B000C00602D53868C006F3D439633868C0065F
:1015C00008D53868C00605D53868C00602D5386821
:1015D000C006F3D42E602C602C612E613868C006E2
:1015E00008D53868C00605D53868C00602D5386801
:1015F000C006F3D4AF2139633868C00608D538680F
:10160000C00605D53868C00602D53868C006F3D4D0
:101610002E602C602C612E613868C00608D53868B1
:10162000C00605D53868C00602D53868C006F3D4B0
:10163000009139633868C00608D53868C00605D5FA
:101640003868C00602D53868C006F3D42E602C6016
:10165000FFF7C8FA2C612E613868C00608D53868D3
:10166000C00605D53868C00602D53868C006F3D470
:10167000009838633868C00608D53868C00605D5B4
:101680003868C00602D53868C006F3D42E602C60D6
:101690002C612E613868C00608D53868C00605D5AB
:1016A0003868C00602D53868C006F3D4019838639C
:1016B0003868C00608D53868C00605D53868C00641
:1016C00002D53868C006F3D42E602C602C612E61E0
:1016D0003868C00608D53868C00605D53868C00621
:1016E00002D53868C006F3D4029838633868C0065B
:1016F00008D53868C00605D53868C00602D53868F0
:10170000C006F3D42E602C6003B0F0BDF0B5012507
:101710002B02924C23616D02256186090227374016
:101720008F4E3468E40608D53468E40605D534687D
:10173000E40602D53468E406F3D4C9195039C9B2B5
:101740003163203A3168C90608D53168C90605D524
:101750003168C90602D53168C906F3D47F4F3D60B0
:101760003B603B613D613168C90608D53168C906F7
:1017700005D53168C90602D53168C906F3D440B22F
:10178000C1178843010910240C4334633168C9062A
:1017900008D53168C90605D53168C90602D5316852
:1017A000C906F3D43D603B603B613D613168C906C9
:1017B00008D53168C90605D53168C90602D5316832
:1017C000C906F3D40E210840401C30633068C006BF
:1017D00008D53068C00605D53068C00602D5306827
:1017E000C006F3D43D603B603B603D61D1B2062052
:1017F00048435C490A5C3468E40608D53468E4066A
:1018000005D53468E40602D53468E406F3D43263BF
:101810003268D20608D53268D20605D53268D206BB
:1018200002D53268D206F3D43D603B603B603D6137
:10183000081841783268D20608D53268D20605D534
:101840003268D20602D53268D206F3D431633168E9
:10185000C90608D53168C90605D53168C90602D55B
:101860003168C906F3D43D603B603B603D618178DF
:101870003268D20608D53268D20605D53268D2065B
:1018800002D53268D206F3D431633168C90608D56F
:101890003168C90605D53168C90602D53168C9065F
:1018A000F3D43D603B603B603D61C1783268D20655
:1018B00008D53268D20605D53268D20602D532681C
:1018C000D206F3D431633168C90608D53168C90638
:1018D00005D53168C90602D53168C906F3D43D6023
:1018E0003B603B603D6101793268D20608D53268C1
:1018F000D20605D53268D20602D53268D206F3D4B4
:1019000031633168C90608D53168C90605D5316823
:10191000C90602D53168C906F3D43D603B603B601F
:101920003D6140793168C90608D53168C90605D5D9
:101930003168C90602D53168C906F3D4306330680E
:10194000C00608D53068C00605D53068C00602D587
:101950003068C006F3D43D603B60F0BD90520A4051
:101960001091464056270000F0B589B005AC07C479
:10197000002B5DD01C460E98991E019140080490E2
:10198000581E039000272B4E089702930FE001206A
:10199000089030200143CAB204984743059838188C
:1019A000C0B20699FFF7B2FEA5422F4640D07D1C7B
:1019B000E8B2844201D1012120E0F84320180199C6
:1019C000C91BC9B2032901D2012108E0FC2202404F
:1019D0000023012171431B1DDCB29442FAD1032282
:1019E0001040029C0AD0012801D10A2005E00228FB
:1019F00002D07D20C00000E064204143079800F041
:101A0000AFFD0A21FEF782FC08980028C1D1039897
:101A1000B842BEDD0029BAD104984743059838186A
:101A2000C0B220220699FFF771FE00200890BBE7A4
:101A300009B0F0BD10270000F0B581B00092127817
:101A4000002A1AD00D4606460024274606E07F1CD1
:101A5000F9B2009A525C002A06460ED0F0B2E9B202
:101A6000D2B2FFF753FE0836F1B27829204600D8EB
:101A700030467829EBD9AD1CE9E701B0F0BD000094
:101A8000B0B50124A0071449FEF7FCFD1348C16F4F
:101A9000134A0A4013495118C16713490A68134B86
:101AA00013400B6000228A6722021346F433CB6096
:101AB0000B6813430B601F23DB020D689D43E30299
:101AC000EB180B6001681143016009490C60816FDC
:101AD00021438167B0BDC046F02C00008810004053
:101AE000FEFFECFF0100120008110040F8FFE0E0EB
:101AF0000004004080B506480649FEF7E9FD0648A7
:101B0000022101600548016801220A43026080BD8C
:101B100000800140F82C0000008401400091014049
:101B200080B50E480221016202680A4302600C4837
:101B30000121024AFEF712FE80BDC046182D0000AA
:101B400080B506480121016202680A430260044828
:101B50000021044AFEF702FE80BDC04628B0424084
:101B600000A04240302D000080B5FFF7D9FFFFF7FD
:101B7000E7FF80BD70B542480146103900220A6077
:101B800001460C390A608221C1603E4A0261034667
:101B9000343B1960014630390A608B218160416015
:101BA00039490A463C3A832313608364374B9A1CB5
:101BB0004264426C4264364C236022682260354A9B
:101BC000C26302640D46303D2A600D46243D2A6002
:101BD0004A6225460C3D2A602546083D2A60251F9D
:101BE0002A6022648125656442628262C262026365
:101BF0000B600E680E600B610E690E610B620E6A5F
:101C00000E628B628B6A8B62CD60A564E264224BAC
:101C10000360046804604361436943618561084669
:101C200038380560084634380560084628380560AD
:101C3000081F05608D60194819490161813A0260E9
:101C4000184901641848194901611D21890601607C
:101C5000174901640120C00716490A6802430A6057
:101C600015490A6A02430A620A6802430A600320AD
:101C7000000212490861C0220A60C030086470BDC9
:101C80003880424082000400C080424081000E0043
:101C9000108142408100020081000C0090120A4035
:101CA000007241000072430090320A40C033C0000D
:101CB000C033C074A0330A4028300A4090520A4012
:101CC00010B50D4C0D492046FEF7B6FD0C492046D7
:101CD000FEF790FD0B4841681D4A0A40D11C416047
:101CE000816812220A432D218A4382600168012201
:101CF0000A43026010BDC04600804640482D0000E7
:101D00004A2D00000491464010B50D4C0D49204667
:101D1000FEF792FD0C492046FEF76CFD0B4841682A
:101D20000B4A0A40111D4160816812220A432D218D
:101D30008A438260016801220A43026010BDC046E6
:101D400000A04640542D0000562D000004B146402E
:101D500000FCFFFFF0B581B01F48002404600F268F
:101D600030021E4D2968814301277802009008182F
:101D700028600320C1432A1F13680B401360696861
:101D8000B943696039026A688A436A6000030A21BC
:101D90002246FEF7DBFD1248FEF758FD29681020A9
:101DA000014320229143296031036A6B8A43092150
:101DB00009035118696339032A680A432A60A96B29
:101DC0000143A963686B0099084368632046FEF7E6
:101DD00003FE01B0F0BDC04608030B4004010B40F8
:101DE000602D000010B50C4C0C492046FEF7A0FEFB
:101DF0000B492046FEF718FE0A48012101600A48F7
:101E000002680A430260094A1160036B0B430363D3
:101E10000220506010BDC04600400840882D0000E0
:101E20008C2D000008510840585008404444084098
:101E300010B50B4C0B492046FEF77AFE0A492046A6
:101E4000FEF7F2FD094801680122114301600849CB
:101E50000A60016B1143016306480321016010BD54
:101E600000208640A02D0000A42D000028308640D0
:101E7000083186404424864010B5084C0849204665
:101E8000FEF756FE07492046FEF7CEFD06480168DC
:101E90000122114301600548026010BD0000864028
:101EA000B82D0000BC2D0000281086400811864087
:101EB00010B50E4807220261036803210B4303603B
:101EC0000B4B1C68640708D41C68640705D41C68A5
:101ED000640702D41C686407F3D504249C611202D1
:101EE0000368934309025918016010BD0051444032
:101EF0003050444010B5124C12492046FEF74AFEBD
:101F000011492046FEF722FE0320C1030F48026854
:101F10008A4302600169254A0A401532026141691B
:101F20002D220A4312218A43426141680122114055
:101F3000436893435918416001681143016010BD23
:101F400000801040D02D0000D22D000000911040E4
:101F500010B5124C12492046FEF71CFE11492046CE
:101F6000FEF7F4FD0320C1030F4802688A430260B4
:101F700001690E4A0A401532026141692D220A4365
:101F800012218A4342614168012211404368934310
:101F90005918416001681143016010BD00001040F4
:101FA000DC2D0000DE2D0000001110400000FFFFBE
:101FB00080B500F033F8FFF7DDFDFFF7CBFEFFF74C
:101FC00011FFFFF735FFFFF757FFFFF7C1FFFFF7DF
:101FD00091FFFFF775FEFFF797FEFFF751FDFFF743
:101FE000C3FDFFF765FFFFF785FDB8200649002216
:101FF0000A5406490A54242005490A5405490A543A
:102000000548027380BDC046DC0520202005202045
:10201000D0042020F804202098062020F0B581B0BC
:102020001A481B4A42601B4842601B4842601B48DA
:1020300042601B4842601B4842601B4842601B4E86
:1020400072601B4D6A601B4C62601B4B5A60901E95
:102050001A4948601A4842601A4A0C4F3A600D4FBC
:102060003A600D4F3A600D4F3A600D4F3A600D4F98
:102070003A600D4F3A6032602A6022601A600A604E
:1020800002601020FEF71EFB01B0F0BD00080A4000
:10209000030000B100280A4000480A4000480840F8
:1020A0000028864000088640000810400088104044
:1020B0000088464000A846400008004000484440D0
:1020C0000088014001000026012040038649086085
:1020D0007047C04680B502494843FEF7F3FA80BD19
:1020E00080380100F0B587B07F4840240461192092
:1020F000C0010190FEF7E6FA012739057B4D2868FB
:10210000C002049105D42868084202D101230020AE
:1021100001E0002338463A062968C901039206D433
:102120002968114203D102210691002101E00693A2
:1021300039467B062A689201029306D42A681A421D
:1021400003D103220692002200E03A46FE062B68E5
:102150001B0104D42B68334201D1002074E00596A2
:1021600008401040604804600FD08024046101984A
:10217000FEF7A8FA28680499084208D1286808429E
:1021800005D101200690002002E0002077E03846CB
:10219000039A029B2968114206D12968114203D192
:1021A00002210691002100E039462A681A4206D130
:1021B0002A681A4203D103220692002200E03A461E
:1021C0002B68059E334205D12B68059E334201D111
:1021D000042039E008401040434804600FD0012635
:1021E000340204610198FEF76DFA286804990842E8
:1021F00007D12868084204D10020069602E0042096
:102200003DE03846039A029B2968114206D12968AD
:10221000114203D102210691002100E039462A68CB
:102220001A42009606D12A681A4203D10322069266
:10223000002200E03A462B68059E334208D12B6805
:10224000059E334204D1082027490C60042117E081
:10225000084010402448046010D000994C020461EA
:102260000198FEF72FFA2868049908420DD12868D2
:1022700008420AD10D20069000200AE008200699A5
:1022800009181B48405C07B0F0BD06980C3006905A
:102290003846039A029B2968114206D129681142E7
:1022A00003D10E210691002100E039462A681A4226
:1022B00005D12A681A4202D10F22069200272A6805
:1022C000059B1A4206D12A681A4203D106480460C7
:1022D0001021D6E7084038400348046001D1069930
:1022E000CFE70021CDE7C04690320A4080330A4054
:1022F000480020208AB0FFF75BFEFFF7E5FEFEF7FF
:1023000025FE8E48009009200025772208262946C0
:102310003346FEF71BFD7D2002908000FFF7DAFEBA
:10232000FEF760FC0227412228463946FFF7EEF906
:102330003A220692304605963946FFF7E7F910240F
:102340007F4A20463946FFF777FB0427422228467A
:102350003946FFF7DBF930463946069E3246FFF72D
:10236000D5F9784A20463946FFF766FB062743220F
:1023700028463946FFF7CAF9059839463246FFF72D
:10238000C5F9714A069420463946FFF755FB64208B
:1023900005906E4EFFF7A6FE4E28FBD0044630385F
:1023A00009280FD86D48854264D8069800900A2005
:1023B00068430519303D0020062301462A46FFF7F1
:1023C000D3FA57E020464138022815D806980090E5
:1023D00000270623384639462A46FFF7C5FA362035
:1023E0000021432C2BD0422C2FD1564AFFF724FB3F
:1023F0000298C2006A432CE0232C7FD0442C42D0A8
:102400002A2C37D106980090059C643400250623B9
:10241000284629462246FFF7A7FA07A84C49059403
:102420002246FDF7D1FE012824DB044607AF3978A8
:102430003046FEF7B9FB7F1C641EF8D11AE0424A11
:10244000FFF7FAFA4348454302E043A2FFF7F4FAE4
:102450002A4607A83E490592FDF7B6FE012808DB8B
:10246000044607AD29783046FEF79EFB6D1C641EBE
:10247000F8D13D463220FFF72DFEFFF733FE4E2800
:1024800088D00A20F7E7FEF7ADFB0025022741229E
:1024900028463946FFF73AF9082005903A2439468C
:1024A00022460494FFF732F9102003903946244A5B
:1024B000FFF7C2FA0427422228463946FFF726F9D9
:1024C000059839462246FFF721F9039C20463946F4
:1024D0001C4AFFF7B1FA0627432228463946FFF780
:1024E00015F905983946049AFFF710F92046394640
:1024F000154AFFF7A1FA64200590BBE70698009003
:10250000059C632C00D9643C0025062328462946F7
:102510002246FFF729FA07A80D4905942246FDF740
:1025200053FE0128A6DB044607AF39783046FEF794
:102530003BFB7F1C641EF8D19CE7C0467E2900004F
:10254000F12D0000F02D0000EC2D000000001040E7
:10255000E82D000040420F00487A20007F96980046
:1025600043088B421AD3002203098B4279D3030A12
:102570008B425ED3030B8B4242D3030C8B4227D397
:102580000902FF2212BA030C8B4202D31212090273
:1025900003D0030B8B4233D31AE0D3E0411A8041BE
:1025A000401C704703460B4371D443088B42F5D35C
:1025B000002203098B4254D3030A8B4239D3030B05
:1025C0008B421DD3030C8B4202D394466EE0090A62
:1025D000C30B8B4201D3CB03C01A5241830B8B42F6
:1025E00001D38B03C01A5241430B8B4201D34B03DF
:1025F000C01A5241030B8B4201D30B03C01A524144
:10260000C30A8B4201D3CB02C01A5241830A8B42C8
:1026100001D38B02C01A5241430A8B4201D34B02B1
:10262000C01A5241030A8B4201D30B02C01A524115
:10263000CDD2C3098B4201D3CB01C01A52418309C9
:102640008B4201D38B01C01A524143098B4201D303
:102650004B01C01A524103098B4201D30B01C01A2E
:102660005241C3088B4201D3CB00C01A52418308A8
:102670008B4201D38B00C01A524143088B4201D3D5
:102680004B00C01A5241411A524110007047CA0F04
:1026900000D04942031000D34042534000229C46E0
:1026A00003098B422DD3030A8B4212D38901FC22EA
:1026B00012BA030A8B420CD3890192118B4208D3C0
:1026C000890192118B4204D3890137D0921100E025
:1026D0008909C3098B4201D3CB01C01A5241830936
:1026E0008B4201D38B01C01A524143098B4201D363
:1026F0004B01C01A524103098B4201D30B01C01A8E
:102700005241C3088B4201D3CB00C01A5241830807
:102710008B4201D38B00C01A5241D9D243088B425D
:1027200001D34B00C01A5241411A00D20146524116
:10273000104663465B1000D34042704763465B100F
:1027400000D3404201B50021004201D0C9430846F0
:10275000C046C04602BD0000000000000000002F7F
:10276000000000000700070000147F147F140024FD
:102770002A7F2A120062640813230036495522502A
:1027800000000503000000001C224100000041225F
:102790001C000014083E08140008083E0808000049
:1027A00000A0600000080808080800006060000041
:1027B000002010080402003E5149453E0000427FBF
:1027C0004000004261514946002141454B3100180B
:1027D00014127F10002745454539003C4A494930CD
:1027E0000001710905030036494949360006494987
:1027F000291E000036360000000056360000000892
:10280000142241000014141414140000412214086E
:1028100000020151090600324959513E007C121153
:10282000127C007F49494936003E41414122007FE8
:102830004141221C007F49494941007F09090901A2
:10284000003E4149497A007F0808087F0000417F27
:102850004100002040413F01007F08142241007FD9
:1028600040404040007F020C027F007F0408107F40
:10287000003E4141413E007F09090906003E4151A9
:10288000215E007F09192946004649494931000166
:10289000017F0101003F4040403F001F2040201FBA
:1028A000003F4038403F006314081463000708707D
:1028B000080700615149454300007F414100005530
:1028C0002A552A55000041417F00000402010204FC
:1028D00000404040404000000102040000205454E9
:1028E0005478007F48444438003844444420003839
:1028F0004444487F00385454541800087E090102AB
:102900000018A4A4A47C007F080404780000447D7F
:102910004000004080847D00007F102844000000BB
:10292000417F4000007C04180478007C080404788F
:1029300000384444443800FC24242418001824247B
:1029400018FC007C08040408004854545420000477
:102950003F444020003C4040207C001C2040201C84
:10296000003C4030403C004428102844001CA0A0FB
:10297000A07C004464544C44141414141414000037
:102980000000000000000000000000000000000047
:102990000000000000000000000000000000000037
:1029A0000000000000000000000000000000000027
:1029B0000000000000000000000000000000000017
:1029C000000000000000000000000080FEFFFFC0CB
:1029D00000000000000000000000000000000000F7
:1029E00000000000000000000000000000000000E7
:1029F0000000000000000000000000C0C0E0E0F0A7
:102A0000FCFEFCF0E0C0C0C0C0C0C0C0C0C0C0C0C0
:102A1000C0C0C0C0C0C0C0C0C0C0C0C0C0C0C0C0B6
:102A2000C0C0C0E0E0F8FEFEF8E0E0C0C00000007A
:102A30000000000000C0C0E0F8FFFFFFFFFFF8E06B
:102A4000E0C0C00000000000000000000000000026
:102A50000000000000000000000000000000000076
:102A6000000000000000000000000000FFFFFFFF6A
:102A7000FFFFFF01FCFCFCFCF8F8F818381F3F3F93
:102A80003F3F3A3838F8FCFCFCF8F87000F8F8F8EA
:102A9000F8F8F9FFFFFFFFFDFEFEFCF8F0FCFCFC80
:102AA000FCF8F8F8381999FBFFFFFFFB993938F863
:102AB000FCFCFCFCFCF838000000000000000000FA
:102AC0000000000000000000000000000000000006
:102AD00000000000000000000000FFFFFFFFFFFFFC
:102AE0007F00FFFFFFFFFF7F7F63E3E3E3E3E3E3B9
:102AF000E36372FFFFFFFFFF7F0000FFFFFFFFFFA9
:102B0000FFFFFFFFFFFFFEFEFEFEFEFFFFFFFFFFDA
:102B1000FFFFCF8F9FFFFFFFFFFFDFCFCFFFFFFF45
:102B2000FFFFFFFF000000000000000000000000A9
:102B30000000000000000000000000000000000095
:102B40000000000080E0F0FE7F3F3F1F77F9FCFCB3
:102B5000FDBF3E3E3E1E1C18BFFFFFFFFFFF7F185C
:102B60001C1E1F3E3EBEFCFCFCFF7F3F1F0FFFFFF5
:102B7000FFFFFF7F07070303000F0F0F0F0703235C
:102B800071F1F9FDFFFFFFFDF9F1716123070F0FEF
:102B90001F0F000000000000000000000000000007
:102BA0000000000000000000000000000000000025
:102BB0000000010100000000000000000000010111
:102BC000010100000000080F0F07070300000000CC
:102BD000000101010101000000000000070F0F07C4
:102BE00003000000000000000000000000000000E2
:102BF000031FFFFFFF3F0300000000000000000074
:102C000000000000000000000000000000000000C4
:102C100000000000000000000000000000000000B4
:102C200000000000000000000000000000000000A4
:102C30000000000000000000000000000000000094
:102C40000000000000000000000000000000000084
:102C50000000000000000000000000000000000074
:102C600007FF3F000000000000000000000000001F
:102C70000000000000000000000000000000000054
:102C80000000000000000000000000000000000044
:102C90000000000000000000000000000000000034
:102CA0000000000000000000000000000000000024
:102CB0000000000000000000000000000000000014
:102CC00000000000000000000000000000000007FD
:102CD00000000000000000000000000000000000F4
:102CE00000000000000000000000000000000000E4
:102CF00000060000000000000000000100010000CC
:102D000000000000000201010000010000000001BD
:102D10000000000000000000200000000000002073
:102D2000000000000001000100000000000003009E
:102D3000050000000000000000000000000100018C
:102D40000000030000000000080004000000000074
:102D50000710000008000400000000000710000039
:102D60000100000000000000000000000000000062
:102D7000000000001000000000010000030000003F
:102D8000000000003400C44108006300020000009D
:102D90003100000000000000000000000000000002
:102DA00008006300020000000900000000000000AD
:102DB000000000000000000002030000020000000C
:102DC000FF9F000000000000000000000000000065
:102DD000080000001800000000300000080000009B
:102DE000180000000030000025750A004D487A00E8
:102DF0006B487A0000000000182E00000000202020
:102E00006000000020010000782E000060002020FB
:102E100048260000480100000000000000000000FB
:102E200000000000000000000000000000000000A2
:102E30000000000000000000000000000000000092
:102E40000000000000000000000000000000000082
:102E50000000000000000000000000000000202032
:102E60004E3132334134353642373839432A3023F4
:082E7000440000000000000016
:04000005000000C136
:00000001FF
