:020000040000FA
:10000000B0262020B9010000BD010000BF010000A2
:1000100000000000000000000000000000000000E0
:10002000000000000000000000000000C10100000E
:100030000000000000000000C3010000C501000036
:10004000C7010000C7010000C7010000C701000090
:10005000C7010000C7010000C7010000C701000080
:10006000C7010000C7010000C7010000C701000070
:10007000C7010000C7010000C7010000C701000060
:10008000C7010000C7010000C7010000C701000050
:10009000C7010000C7010000C7010000C701000040
:1000A000C7010000C7010000C7010000C701000030
:1000B000C7010000C7010000C7010000C701000020
:1000C00000F002F800F068F812A030C808382418D0
:1000D0002D18AC4201D100F05FF80FCCA246AB4620
:1000E0000CA730CF2D1B083F3F197C427F1E544484
:1000F0002D090426F441641EAC4201D300F04CF8F3
:100100000126334200D0FB1A3343984754465D46DC
:10011000DFE700006C5400008C5400000000000079
:10012000103A02D378C878C1FAD8520701D330C840
:1001300030C101D504680C60704700000000000069
:100140007047000000000000002300240025002666
:10015000103A01D378C1FBD8520700D330C100D583
:100160000B60704710B5752902D100F087F810BDFB
:10017000002010BD1FB500F08FFD040000200021FD
:1001800004F04EFD401C60600020002104F032FDB0
:10019000E0601FBD10B510BD01F0A8FA1146FFF7D1
:1001A000E9FF03F06DFD01F00DFD03B4FFF7F2FF71
:1001B00003BC01F035FE000006480047FEE7FEE7FD
:1001C000FEE7FEE7FEE7FEE703480449024A044B68
:1001D00070470000C1000000B0062020B02620209B
:1001E000B00620200FB41CB5084B06AA7B44694614
:1001F0000090059800F059FA04460020694600F086
:1002000067FA20461CBC08BC04B01847E104000093
:10021000F8B50E460446002020622046E168884773
:10022000002829D0252802D06268A16820E0E16872
:1002300020460027884705001ED028464138192847
:1002400002D80127FF022035324620462760294682
:10025000FFF788FF002808D0012804D0F61DF60813
:10026000F6000836D9E7361DD7E762682846A16848
:100270009047206A401CCFE7206AF8BDF7B50025FB
:1002800075291068009914A611D0C046C0460028F0
:1002900002DA404211A608E0009909688A0701D5F0
:1002A0000FA602E0490704D50EA6012501E0C046CD
:1002B000C046009F0024243704E000F0D9FC303110
:1002C0003955641C0028F8D12B4632462146009847
:1002D00000F08DF9FEBD0000000000002D000000C0
:1002E0002B000000200000000FB400B58DB010A955
:1002F00009900B900020C04300910A9000200C90C0
:10030000074878440690074878446A4607900F9952
:1003100009A800F079FC0DB008BC04B01847000033
:100320002709000041090000401ECAB24178401C64
:100330008A4202D00029F9D10020704730B5441C10
:1003400003E00178401C00290DD08107F9D10B4B47
:10035000DD0104C8D11A91432940FAD0001B0A06D6
:1003600003D0C01E30BD001B30BD0A0401D0801E6A
:1003700030BD0902FCD0401E30BD0000010101016A
:1003800001E004C0091F0429FBD28B0701D50280BC
:10039000801CC90700D00270704700290BD0C3072A
:1003A00002D00270401C491E022904D3830702D5E3
:1003B0000280801C891EE3E70022EEE70022DFE7CF
:1003C000002203098B4273D3030A8B4258D3030BD9
:1003D0008B423CD3030C8B4221D312E003460B43E8
:1003E0007FD4002243088B4274D303098B425FD32E
:1003F000030A8B4244D3030B8B4228D3030C8B425A
:100400000DD30902FF2212BA030C8B4202D312123F
:10041000090265D0030B8B4219D300E0090AC30B14
:100420008B4201D3CB03C01A5241830B8B4201D3C1
:100430008B03C01A5241430B8B4201D34B03C01AAA
:100440005241030B8B4201D30B03C01A5241C30A22
:100450008B4201D3CB02C01A5241830A8B4201D393
:100460008B02C01A5241430A8B4201D34B02C01A7D
:100470005241030A8B4201D30B02C01A5241CDD222
:10048000C3098B4201D3CB01C01A524183098B426D
:1004900001D38B01C01A524143098B4201D34B0156
:1004A000C01A524103098B4201D30B01C01A5241B9
:1004B000C3088B4201D3CB00C01A524183088B4240
:1004C00001D38B00C01A524143088B4201D34B0029
:1004D000C01A5241411A00D201465241104670479B
:1004E0005DE0CA0F00D04942031000D340425340A0
:1004F0009C46002203098B422DD3030A8B4212D360
:100500008901FC2212BA030A8B420CD38901921191
:100510008B4208D3890192118B4204D389013AD0CE
:10052000921100E08909C3098B4201D3CB01C01AA3
:10053000524183098B4201D38B01C01A52414309B6
:100540008B4201D34B01C01A524103098B4201D3A4
:100550000B01C01A5241C3088B4201D3CB00C01A11
:10056000524183088B4201D38B00C01A5241D9D229
:1005700043088B4201D34B00C01A5241411A00D2AA
:1005800001465241104663465B1001D34042002BA6
:1005900000D54942704763465B1000D3404201B525
:1005A0000449002802DC491C084000E00846C04617
:1005B000C04602BDFFFFFF7F7047704770470102D2
:1005C000C21504D00123DB071943002A0ADB9E234E
:1005D0009A1A02D40846D0407047FF224100120602
:1005E000914201D900207047C017C0437047FFB542
:1005F00004460D4681B0243000902168880604D559
:100600001022E0699143216000E00120A84201DD51
:10061000471B00E000270498A1697A191018081AEE
:10062000A0612078C00602D42046C046C0460026FD
:1006300008E003986268A168805D9047206A401CCA
:10064000761C206204988642F3DB2078C0060AD527
:100650002046C046C04606E06268A1683020904748
:10066000206A401C206238467F1E0028F4DC07E028
:1006700000986268A168405D9047206A401C206233
:1006800028466D1E0028F3DC2046C046C046207870
:10069000000602D5022005B0F0BD0120FBE70000F6
:1006A00001694A1C02610878704700B58FB0029159
:1006B0000021059105490193794403911146049065
:1006C0006846FFF7A5FD0FB000BD0000E5FFFFFF86
:1006D0000A681070521C0A6070470000FFB58BB0AA
:1006E0000878FF2806D0491C2D2805D000230020BB
:1006F000009009E000200EE00123F8E7009A0A24A8
:1007000062438018491C00900878FF28F6D1002B1E
:1007100002D0009840420090002503952C460D9889
:1007200000782D2801D02B2815D10D99491C2D2892
:100730000D9102D0002003900DE00120FBE7401C4A
:10074000214600270A223B460D90284600F0BCFABD
:1007500035183C464C410D980678FF2EEFD100210C
:1007600008460020C0460399002902D081004018A5
:1007700040080002860F012E01DD0026F6430E9987
:1007800000984718284620430BD0FF20F530C74279
:100790001ADA0398C1070B98002E41600ADD012088
:1007A00009E00398C1070B9841600B99002008608D
:1007B0000FB0F0BD00200B99086000F071FA022123
:1007C0000160182108461AE0FF20F530874219DD44
:1007D000002E02DAFC48784401E0FC48784406C860
:1007E0000B9806C00B9803994068C90708430B99FA
:1007F000486000F055FA02210160142108460020EB
:10080000C046D5E7002108460020C04639000A90BE
:1008100001D5724200E03246002900DA794207A889
:1008200000F034FC07AB07CB04AB07C3E8480090EB
:1008300000200146214304D12C460546E4492039D5
:100840000091210C0904014306D1290C24040C4316
:1008500000992D0410390091210E0906014306D19B
:10086000290E24020C4300992D0208390091210F12
:100870000907014306D1290F24010C4300992D01DA
:10088000091F0091A10F8907014306D1A90FA400F8
:100890000C430099AD00891E0091E10FC907084380
:1008A00004D100986D196441401E0090002F0295FC
:1008B000019406DD32466846012304A900F07AFE61
:1008C00005E001233246684604A900F0C8FE04464C
:1008D00003980D46002802D00120C00744400021A3
:1008E00008460020C0460A99BA4E48400007800FCB
:1008F00007D160004008284303D06000400DB0429B
:1009000014D100F0CDF9022101606000400DB04229
:100910000CD1B148784406C80B9806C00B98E10F7B
:10092000C907406808430B99486041E70B98446049
:100930000B9805603CE7FFB51F4695B000200025E9
:100940000C909E685C68ED43139000F0A5F9C068B8
:100950000168405C1490B96916986D1C88470A902C
:10096000396A88470028F6D10A98401C0AD00D2021
:10097000C0018443002E12DD0A982B2809D02D28AF
:100980000DD103E00020C04319B0F0BD012080026A
:100990000443B96916986D1C8847761E0A90600555
:1009A00004A901D52D2000E02B206A46491C1074B3
:1009B00010A8002E0D910B903BDD0A98692805D0F8
:1009C000492803D06E2801D04E281DD13B46039004
:1009D00002200296179A1699C0430095019404F0DC
:1009E00003FAC11CD0D10FE0B96916986D1C884775
:1009F0000A900120761E4002044317980560139860
:100A0000401C002E139014DD0A983028ECD0782872
:100A100001D058280DD1139801280AD13B460296DF
:100A2000179A1699001F0095019404F0D5F9C11C7E
:100A3000AAD114990A98884245D18020044308E03D
:100A40000C981799401E0C90012040020443681C2A
:100A50000860B9696D1C1698761E884730280A9080
:100A6000EED030E01499884205D1200603D48020CE
:100A70000443761E1DE00A9804F050F8002825D0A3
:100A800001210A9849020C430D9908AA0332303813
:100A9000761E914208D208700D98401C0D902006D9
:100AA00007D50C98401E03E0200602D40C98401C89
:100AB0000C90A00502D51799681C0860B9691698B2
:100AC0006D1C88470A90002ECCDC59E0002E57DDC3
:100AD0000A98652801D0452852D1A00550D5032099
:100AE000B969000284436D1C1698761E8847002E53
:100AF0000A900CDD2B2804D02D2808D1FF200130CE
:100B00000443B96916986D1C8847761E0A90E00563
:100B100001D52D2100E02B210B9801700B98401C72
:100B20000B90009025E0012012A9400204430B988D
:100B30000131761E88420ED20A980B993038000691
:100B4000000E087003D100990B9888420AD90B98BF
:100B5000401C0B9006E0E00501D5204801E01F484D
:100B600040420C90B96916986D1C88470A901798F6
:100B70000560002E04DD0A9803F0D0FF0028D2D1D2
:100B8000F969169888470D99FF2004AA08700B99F7
:100B9000087000200E900F900C9B10A90EA8FFF774
:100BA0009DFDA00502D40120C043EDE624200442AF
:100BB00016D0E00720D138680F9A0E99031D3B60CC
:100BC000006806C018E00000CE4D0000C04D0000D7
:100BD0003E400000FF070000884C0000F1D8FFFFF6
:100BE0000EA9684603F024FFE00705D13868009A93
:100BF000011D3960006802602846C5E60268511888
:100C0000137801601846704710B5D16005497944E2
:100C1000516105497944116200211161114600F0CA
:100C200075F810BDEBFFFFFFE10000004268002AED
:100C300008D001680B78491C002B03D0521E06C057
:100C4000184670470121C160881E70474268002A1B
:100C50000BD0C3680168002B07D183688B4204D096
:100C6000491E521C06C0002070470020C043704738
:100C700001468008081A02091018020A1018020C0E
:100C80001018C008820012185200891A01E0401C96
:100C90000A390A29FBD27047004870478800202093
:100CA000004870476800202010B5202A04DB014668
:100CB000203A9140002010BD914020239C1A034609
:100CC000E3401943904010BD4343514330B55C1895
:100CD000010C130C0D4692B25D4380B251432C19A6
:100CE000054655430A0C09044D1962415843010C4D
:100CF00000044019514130BD10B5044600F016FD06
:100D00000068005DC007C00F10BD0000F3B50C46C1
:100D10008FB000200C90012000260E9008460C3069
:100D200003906269039801219047051E2ED0252D5E
:100D30002DD0216A8847002818D0626903980121C4
:100D40009047216A88470028F7D16269411E0398BD
:100D5000904700E0761CA1690F988847216A884770
:100D60000028F7D1E1690F988847DAE7A1690F9861
:100D70008847A842074601D1761CD2E7E1690F985F
:100D800088477F1C02D10C98002877D06BE16269FC
:100D9000039800273D46394690472A280CD16269BE
:100DA000039801219047012506E00A214F433F188F
:100DB000303FEBD41020054362690398012190472E
:100DC000014630390A2903D2AC498F42DEDCECE718
:100DD000E90600D4AA4F6C280AD04C2810D0682805
:100DE00024D06A282ED074280CD07A280AD00DE09E
:100DF00062690398012190476C2823D004211CE0EC
:100E0000202005436269039801219047A760652867
:100E100065604FD026DC582839D01ADC452849D0E7
:100E200012DC252834D04128B0D143E06269039810
:100E300001219047682802D008210D43E6E70120F0
:100E4000C002DEE70220DCE7462833D047289DD1E8
:100E500030E05B2870D061282CD063286CD06428E7
:100E600094D161E06F284FD009DC662822D0672832
:100E700020D0692826D06E2817D12EE0EFE0702808
:100E80004DD073286FD075284ED078280DD154E0FE
:100E9000A1690F9888472528054600D16CE7E169CC
:100EA0000F9888476D1C00D16DE7DCE00A224CE00A
:100EB0000A2252E0012023466A460F99C04303F0FC
:100EC00083FFC5E040212846234608436060A80709
:100ED00001D5002239E000223FE0E80700D020E7FA
:100EE0002068011D21600068290501D5067018E7FA
:100EF000290701D5068014E7A90703D5F117066075
:100F000041600EE706600CE740212846234608436F
:100F10006060A80701D5082217E008221DE05949A2
:100F200028460840606016E04021284623460843D2
:100F30006060A807BCD5B9E715E040212846084302
:100F40006060A80707D52346102201200F99C043EF
:100F5000C046C0467CE01022234601200F99C043C2
:100F6000C046C04674E0002163280B460191009101
:100F700002910D9102D05B2807D03BE0E80601D436
:100F80000120A0600120009034E0E06801210D9074
:100F90006269039890475E2807D101200190E068BC
:100FA00001210D906269039890472169002906D1BB
:100FB0000B4604AA8F00491C0829D351FADB0028EC
:100FC00051D02169002926D00298401C0290626904
:100FD0000398012190475D28F1D10198002808D09D
:100FE000002004AB8100401C5A58D24308285A50B4
:100FF000F8DB04AB2069002820791CD04007029A56
:1010000000980D9B0092224602901F480F991DD513
:10101000C046C0461CE0C117C90E09184A1149094B
:10102000930004AA9A184901411A136801208840C4
:1010300003431360CBE74007224613480F9902D5BC
:10104000C046C04604E0C046C04601E0C046C046B7
:1010500000280ADA401C06D10E98002803D0002090
:10106000C04311B0F0BD0C98FBE7E90702D10C9921
:10107000491C0C91361800200E9052E6CCCCCC0CBA
:10108000FFFFFF7FF1F7FFFFFEFFFFFFF7B51646FB
:101090008AB0334878446C4603467C33C06F5A6844
:1010A0009B680DC42E487844763003AC0DC80DC43F
:1010B0003720C001081837211B30FFF78FF905468C
:1010C0000C46803D1B3C02D56442012000E000201C
:1010D0000027099010E0E0070CD00C20204978434D
:1010E000794432464C3941186846012300F054FADD
:1010F0006B4607C364107F1C002CECD1184F7F4453
:101100002E3F16E0E80712D02001C0190EC8069144
:10111000089307920068F04201D19819089032466E
:10112000012306A903A800F037FA03AB07C36D102B
:10113000641C002DE6D10998002806D03246694685
:10114000012303A800F07EFA05E001233246694638
:1011500003A800F021FA0A9B07C30DB0F0BD000000
:10116000603D0000034640000A4610B5400D0BD01C
:101170000121C9070F24A40200191C03640821439C
:10118000540D2143D20207E000210120F2E7D40FE1
:10119000490021435200401E0029F8DADB0FDB072B
:1011A000184310BDFFB50D46144685B04868516818
:1011B00003F011FC00910190A868A16803F00BFCFA
:1011C00002910390A868616803F005FC029A121866
:1011D0008242029201D2012000E00020019A0B1805
:1011E000D2180028019202D08A4202D903E08A4232
:1011F00001D2012000E000200099081800906868E2
:10120000A16803F0E8FB029A12188242029201D20E
:10121000012000E00020019A0B18D218002801924A
:1012200002D08A4202D903E08A4201D2012000E0C2
:1012300000200099081800902868216840004900A3
:10124000400849084018FA49471814E0019940003D
:10125000C90F08430090019802994000C90F084344
:101260000190029803994000C90F08430290039827
:1012700040007F1E039000980028E7DA08980028B5
:1012800001D0EC4E00E00026B74201DA012000E078
:101290000020002804902AD0F71BF806C00E15D0B5
:1012A000029B2021091A039A8B401A430392029A47
:1012B000019BC2408B401A430292019A009BC2409C
:1012C0008B4000991A430192C14000917B110DD0CF
:1012D0006F460320C11A03D500218200B95003E0F4
:1012E0008A008100BA587A50401EF3D537460398D9
:1012F0000299002800D0012001430898029100289B
:1013000008460CD0002800D001200199019A490517
:1013100008430121D20AC902D202019200E0012150
:101320000E9B0122D207012B02D0002B03D013E029
:10133000002807D120E0904204D890420CD1019BB4
:101340000B4209D0019B5918019105D10099491C04
:10135000009101D17F1C009200280DD01021084679
:101360000020C0460498002806D00F98002803D01B
:10137000082108460020C04628682168019B009A81
:101380004840C10F0598C90739430EC009B0F0BDE8
:10139000FFB587B0099A0898089953689268406821
:1013A000896896460022039317469446089A126865
:1013B0005300099A5B081268520052089A1A9E4B11
:1013C000D4180A9A002A01D0352200E04022069261
:1013D0000022012315460492DB07059324E0002D2B
:1013E00005D175460346039E4D1BB34109D375468F
:1013F0006646039B491B049D9841059B7519AC46A5
:101400005F4163463B4308D0059B049EDD07760899
:101410002E435B080496059301E0521E641EC50F1F
:10142000ED0749184041521C069B9A42D7DB002D1C
:1014300004D17546039A6B1A824101D203200CE055
:10144000039A0B466B404240134303D0014303D041
:10145000012002E0022000E000206146019100210D
:10146000009702910A99002905D061464002014384
:10147000704B019102E08007002302909C4201DA48
:10148000012000E0002007003AD01A1BD006C00E51
:1014900015D0029D2021019C091AC5408C4025438E
:1014A000029C8C4000D001242543019C0295009DA4
:1014B000C4408D4000992C430194C14000915411C7
:1014C0001DD06D460221002202290CD10320001BF1
:1014D00007E0002804DB8600AE59002E00D0012270
:1014E000401C0328F5DB081B02D588002A5004E0C5
:1014F0008000285810438A00A850491EE3D51C4696
:101500000A98002802980CD0002800D001200199E8
:10151000019A490508430121D20AC902D202019267
:1015200000E00121109B0122D207012B02D0002BE9
:1015300003D013E0002807D11FE0904204D8904266
:101540000CD1019B0B4209D0019B5918019105D187
:101550000099491C009101D1641C009200280CD014
:10156000102108460020C046002F06D01198002800
:1015700003D0082108460020C04608980999019A1E
:10158000009B006809684840C10F0798C9072143BC
:1015900082600AC00BB0F0BD00B585B00193009227
:1015A0000A460146002302A8FFF7FCFD02A807C86F
:1015B00005B000BDFFB50A461F4685B007990193E7
:1015C00001230091014602A8FFF7ECFD0299039860
:1015D000049ECA0F4900D20700920F2249089202C6
:1015E0008C1A0021002800DB0C46450013486D08CA
:1015F000844214D3079A002A04DA441E0026104DB0
:10160000F64302E004460D460E461021084600202F
:10161000C046002F03D0042108460020C046200504
:10162000E90A0843009908436905F20A1143ADE647
:1016300002C0FFFF013C0000FF3F0000FF07000069
:10164000FFFFFF7F00B585B0019300920A46014677
:10165000002302A8FFF79CFE02A807C8A8E7FFB571
:101660000A461F4685B00799019301230091014660
:1016700002A8FFF78DFE02990398049ECA0F490045
:10168000D20700920F22490892028C1A00210028EA
:1016900000DB0C46450011486D08844214D3079ABC
:1016A000002A04DA441E00260D4DF64302E00446EB
:1016B0000D460E46102108460020C046002F03D0DC
:1016C000042108460020C0462005E90A0843009985
:1016D00008436905F20A114358E60000FF070000BD
:1016E000FFFFFF7F00487047680020207546FFF726
:1016F000F9FFAE46050069465346C008C00085465E
:1017000018B020B5FEF760FD60BCB6460026002785
:10171000C0C5C0C5C0C5C0C5C0C5C0C5C0C5C0C5A1
:10172000403D490849008D467047000010B5FFF75D
:10173000B3FA001D10BD00BFE934000010B5FFF77B
:10174000AFFA006810BD10B50446FFF7A9FA0460AF
:1017500010BD0000FFB51F4689B0139812994005CF
:10176000C00FC00705900020079005460446461E9E
:10177000049002903C20491C12910690B9690A9885
:10178000884703901498401E14901498002841DD57
:1017900003982E2816D0102100F0B2FA002834DB6E
:1017A00001210491079901431AD0069900290CDB05
:1017B000069AC117FFF778FA054306980C43001FF5
:1017C000069006E0012002900EE0002801D00120E2
:1017D0000543012007900298002805D1361D03E03B
:1017E0000298002800D0361F1298401C1290B96948
:1017F0000A98884703901498401E14900498002873
:10180000C3D00B9912980860BFE70398702808D0DE
:10181000502806D0F9690A9888470498002815D0FE
:1018200051E00020039001200290049800280AD083
:101830001298401C1290B9690A9888471499491E59
:101840000029149106DCF9690A9888470120C043F1
:101850000DB0F0BD2B2804D02D280DD10020C043A1
:1018600002901298401C1290B9690A9888471499FE
:10187000491E00291491E6DD411CE4D00A2100F044
:101880003FFA0028DFDB03990A225143081803902E
:101890001298401C1290B9690A9888470A2100F0F2
:1018A0002FFA14990B9A491E1491129911601499E8
:1018B000002901DD0028E6DAF9690A9888470299CB
:1018C0000398484386191398242108400490284619
:1018D000204304D0A10F8907090002D006E0059833
:1018E0009BE0A90FA4000C43AD00B61EE10FC90791
:1018F000080002D16D196441761E0498002803D0B7
:101900000B2002905D4803E0282002907D20C04318
:101910008642039007DA811B02980818412802903A
:1019200001DD41200290029A01200021521EFFF7A2
:10193000BBF9024628400B462140084301D0012054
:1019400000E0002007900020521EC04343412A407F
:1019500023401A4301D0012000E00020079906909F
:10196000014352D0002108460020C0460321059AB9
:1019700089050840002A05D082008018C20F10187F
:10198000401008408015012802DD0020C04301E01E
:10199000012815D0401C38D00798002835D006986B
:1019A00000280DD1029A01200021FFF77DF928407F
:1019B0002140084301D0012000E00020002824D06D
:1019C000029A01200021FFF76FF9034640198C4667
:1019D00061412A1A8C410FD30298402807DD0498F0
:1019E000039E002801D0343E02E0173E00E0761C42
:1019F00001240025E40708E05B1E62460024E4435E
:101A00006241DD43D44305400C4003980121081A8C
:101A1000B04206DA1A490598084301900020009068
:101A20000EE060006205010BE80A1043059A009081
:101A300068460A4313490A433146019203F064F8A9
:101A4000049800280AD01398C00714D13868019A66
:101A50000099031D3B60006806C00CE002A86946BF
:101A600002F0E6FF1398C00705D13868029A011DFD
:101A70003960006802601298EAE6000002FCFFFF8D
:101A80000000F07F0000F03FFFB51D4687B01198C1
:101A9000484A109C129E40051399C00F761EC0073D
:101AA0000243019200220092FF22D205104320221D
:101AB00091434929059003D017464E2928D04FE07D
:101AC0003DA002AA0BC801270BC2A9690898641C93
:101AD0008847761E014607D402A8C05D002803D0BF
:101AE0002022914381420AD0E96908988847032F50
:101AF00036D0082F34D00120C0430BB0F0BD7F1C7E
:101B0000032F01D0082FE0D10999601C0860DCE7A1
:101B1000A9690898641C8847761E2DD4B8434128CB
:101B20002AD1A9690898641C8847761E24D4B84332
:101B30004E2821D1A9690898641C8847019901227F
:101B4000D204114301910599D200114305910999DD
:101B5000761E0C6001D4282806D0E96908988847C9
:101B60001198C00712D023E0A9690898641C88471F
:101B7000761E01D4002803DAE96908988847BAE795
:101B80002928F1D10998641C0460E9E711982421FF
:101B9000084207D02868019A0099031D2B6000684D
:101BA00006C005E028680599021D2A6000680160EA
:101BB0002046A2E70000F07F494E46494E4954595D
:101BC0000000000010B50446C046C0462046FEF79F
:101BD000ECFA10BD82078B079A423FD170B5920F85
:101BE0000AD0032402780B78401C491C002A33D009
:101BF0009A4231D12042F5D1214EF40104C808C9DE
:101C0000951B9543254018D19A420FD104C808C9A5
:101C1000951B9543254010D19A4207D104C808C9A5
:101C2000951B9543254008D19A42E7D012BA1BBABA
:101C300001209A4200D2404270BD12BA1BBA2DBA9E
:101C400018241000E0401900E140401A05D12E0090
:101C5000E64002D1083CF4D1D01A70BD02780B786E
:101C6000401C491C002A09D09A4207D102780B78FF
:101C7000401C491C002A01D09A42EFD0D01A70476C
:101C8000010101010246C80FC00781434B0030B576
:101C90004B405B009B0D20D01923DB06C9180123A4
:101CA0001B05994220DB0324A40704251346AB40FF
:101CB0000BD3002B04D1EB0613409B00E34204D46A
:101CC00001246407002312195941FF231B0599427F
:101CD0000BD2C9000143500F09E0CB0204D50143E8
:101CE0000803024305D0054830BDFF21C90508435C
:101CF00030BD084607210905884330BD0000C07F7C
:101D00003A2800D23038202302469A43412A01D390
:101D100010463738884201D30020C0437047000086
:101D2000F8B5264C4E00069DA6420AD8A64201D11F
:101D3000002806D15E00A64203D8A6420AD1002A96
:101D400008D00D242404254233D02946002000F079
:101D50006DF8F8BD0C461C4311D4994207D0C81A3F
:101D600002D3EFF30080F8BDEFF30080F8BD801AD6
:101D700002D3EFF30080F8BDEFF30080F8BD092433
:101D80002407E5008B4207D0581A02D3EFF30080F6
:101D900006E0EFF3008007E0101A03D3EFF30080B2
:101DA000A04303E0EFF30080A043284380F30088C2
:101DB000F8BD009500F052F8F8BD00000000E0FF0B
:101DC00070B505464800440D124B0020002C0AD087
:101DD000634008D09A4206DA6642B24203DD120539
:101DE0004019514170BD002C08D0002B09D0C90FFB
:101DF000C907002AF6DB084A114370BDC90FC9079D
:101E000070BD28460A03104302D00020034970BD6C
:101E1000284670BDFF0700000000F07F0000F87F3B
:101E200001491820ABBEFEE726000200C80212D509
:101E30004803400F002804D0C803C0430121884054
:101E40007047EFF3008000010009032109070843F0
:101E500080F30088704700207047000010B5002014
:101E60000249029A00F005F810BD00000000F87F5A
:101E7000704710B50C461107090F092904D00A292B
:101E80000AD008290CD104E011460820FFF7CEFF44
:101E900006E0510606D501E0510601D50120C00734
:101EA000214610BDD10607D501010909CC08490713
:101EB000000E0006044309E0410F20024907000A12
:101EC0000143200E00061D22D14101430846E7E7E9
:101ED000B0B50A78032313400B4A84580B4D2540B4
:101EE000EB18A92424061B198350072212064B68FD
:101EF00013401124240205599543EA180251001990
:101F000049780161B0BDC04608080000FCFFFF0031
:101F1000811E091F00BFFCD270470000B0B511221E
:101F200012028358174C1C408B888D681D43164B3A
:101F30002B401B1983508B890C681C438B7B2343DC
:101F4000124C1C4080180269114B1340E2180261C8
:101F5000CA7B0B694C69134323430A8B1A430D4B0D
:101F60001340026A0C4C14401A1902628A7E898B53
:101F700011430A4A0A40016B094B0B40991801634F
:101F8000B0BDC046FFFEFEFF0001010003030001DB
:101F9000FCFCFFFE01030301FEFCFCFE010F000040
:101FA000FEF0FFFFB0B5536894681C439389234348
:101FB000146955691C43D3892B431B0123430C012E
:101FC000041909256D026351137852781A43BF230F
:101FD0001A4089004018034944589C43A2184250B3
:101FE000B0BDC0461011000012490A6812480260D4
:101FF0004A6842608A688260CA68C2600A6902618F
:102000004A6942618A698261CA69C2610A6A026276
:102010004A6A42628A6A8262CA6AC2620A6B02635E
:102020004A6B42638A6B8263C96B7B4A0264C163F9
:102030007047C0460000C44100002020B0B5112206
:10204000120283580C4C1C400B894D881D438B7920
:102050002B430A4D1D4063198350CB798C881C4358
:10206000097821435D239B001940801842689A43F8
:1020700051184160B0BDC04680CCFFFF7F330000E7
:1020800010B50122120383180C785C6049788150E6
:1020900010BD0000F0B585B0044601252902394E77
:1020A00030680491884330605A480068006C5A498F
:1020B000884201D0FFF798FFA9036C4802680A42E2
:1020C00008D102680A4205D102680A4202D10268B8
:1020D0000A42F3D0617E2940B269AA435118B16126
:1020E0002021615C03221140F36993435918F16187
:1020F00025490A6805230B60636A1F6837625B68BD
:102100007362072313400B60E1697F221202F369B7
:1021100093434906490C5918F1612768039565688E
:10212000A1680091E3682169019161690291B26936
:10213000164911403A07120B2D03ADB2AA181A43E3
:10214000009B1B071B0D1343019A1343029A134371
:10215000227E1A430E4B13405918B1613168049A1C
:10216000114331600399490202680A4208D10268AA
:102170000A4205D102680A4202D102680A42F3D03B
:1021800005B0F0BD08010B40001340408D00F0FF8A
:1021900072FF0F00F0B581B014460D4606461D488B
:1021A0000068006C1C49884201D0FFF71DFF1B48E6
:1021B0000246083A136801218B43136003231B0373
:1021C0001E4007689F43BB1903600368FF26B343A3
:1021D000EDB25B19036013680B4313600268002CB7
:1021E00012D00B071A430260080220490A68024213
:1021F00008D10A68024205D10A68024202D10A687F
:102200000242F3D001B0F0BD09078A43026001B079
:10221000F0BDC04644002020FECAFECA10010B409B
:1022200010B51149886001225305104804681C420A
:1022300008D104681C4205D104681C4202D104681C
:102240001C42F3D012040B6813430B600168C906EB
:1022500008D40168C90605D40168C90602D401681A
:10226000C906F3D510BDC04604010B4004020B4063
:10227000B0B53B4A80184A6842600A78222A57D88B
:10228000930001A4E3589F46272300003123000058
:1022900027230000312300003123000031230000F8
:1022A00031230000312300003123000031230000DE
:1022B00031230000312300003123000031230000CE
:1022C00031230000312300001523000031230000DA
:1022D00015230000312300003123000031230000CA
:1022E000312300003123000031230000312300009E
:1022F000312300003123000031230000312300008E
:102300003123000031230000152300003123000099
:102310001523000003231B0704689C4301235B076C
:10232000E318036004E003231B0704689C43046074
:102330000B69C360CB680B4C1C40C36A0A4D1D403F
:102340002B19C3620368094C1C400460097A1143CD
:102350003F2211400368934359180160B0BDC04645
:1023600004180000777702008888FDFF7F00FFFFD8
:1023700010B50122120383180C789C604B788350AF
:102380008978014A815010BD0C110000B0B51122AE
:10239000120283580124A34383508B780C881C437A
:1023A0008B882343094C1C408358094D1D402B1931
:1023B00083508B79CC791C43097A21437E231940C1
:1023C000801842689A4351184160B0BD18670000F8
:1023D000E798FDFF10B50122120383180C789C606A
:1023E0004978815010BD00000D4A8018026812061D
:1023F00008D50268120605D50268120602D50268E1
:102400001206F3D481610168C90708D00168C907C1
:1024100005D00168C90702D00168C907F3D1704728
:1024200008110000F0B581B0012108024902002224
:10243000E74BE84C03E0521C082A00D19CE01861ED
:1024400019612568ED0608D52568ED0605D52568CE
:10245000ED0602D52568ED06F3D41546B0352563A3
:102460002568ED0608D52568ED0605D52568ED0635
:1024700002D52568ED06F3D419601860186119615A
:102480002568ED0608D52568ED0605D52568ED0615
:1024900002D52568ED06F3D4022525632568ED06EF
:1024A00008D52568ED0605D52568ED0602D5256811
:1024B000ED06F3D419601860186119612568ED06FE
:1024C00008D52568ED0605D52568ED0602D52568F1
:1024D000ED06F3D4102525632568ED0608D525689B
:1024E000ED0605D52568ED0602D52568ED06F3D481
:1024F00019601860002505E019601860AD1C6DB208
:10250000002D98D4186019612668F60608D526684B
:10251000F60605D52668F60602D52668F606F3D433
:10252000002626632768FF0608D52768FF0605D51D
:102530002768FF0602D52768FF06F3D419601860E4
:10254000186019612768FF0608D52768FF0605D5BA
:102550002768FF0602D52768FF06F3D4266326689E
:10256000F606C9D52668F606C6D52668F606C3D58A
:102570002668F606F3D4BFE7412001010248FDF7C3
:102580001DFF01B0F0BDC046C8002020F0B58BB0E3
:10259000089207900693994200D3FAE010980A90A7
:1025A0000B460899079FCA1B012000920240039224
:1025B0000E223A40521C05924C421946FA430992A7
:1025C000050246023809103004900022804F814BEA
:1025D000E0B202900998C0B2019006E00246099963
:1025E000491C0698814200D1D3E010463D613E610E
:1025F0001A68D20608D51A68D20605D51A68D20616
:1026000002D51A68D206F3D40A46B032D2B21A639F
:102610001A68D20608D51A68D20605D51A68D206F5
:1026200002D51A68D206F3D43E603D603D613E613A
:102630001A68D20608D51A68D20605D51A68D206D5
:1026400002D51A68D206F3D4049A1A631A68D2061D
:1026500008D51A68D20605D51A68D20602D51A68B6
:10266000D206F3D43E603D603D613E611A68D206F9
:1026700008D51A68D20605D51A68D20602D51A6896
:10268000D206F3D40991059919631A68D20608D5C0
:102690001A68D20605D51A68D20602D51A68D2067B
:1026A000F3D43E603D600899079A914296D9039908
:1026B000002902461FD00A990A5C3D603E611C68F1
:1026C000E40608D51C68E40605D51C68E40602D5B6
:1026D0001C68E406F3D41A631A68D20608D51A688F
:1026E000D20605D51A68D20602D51A68D206F3D4E6
:1026F0003E603D60421C0299019C8C4200D16EE715
:102700000099081807E03E603D60C1B2921CD4B247
:10271000A14200D163E70A998C5C3D603E61196873
:10272000C90608D51968C90605D51968C90602D5AC
:102730001968C906F3D41C631968C90608D5196855
:10274000C90605D51968C90602D51968C906F3D4A2
:102750003E603D600A9951184C783D603E611968B1
:10276000C90608D51968C90605D51968C90602D56C
:102770001968C906F3D41C631968C906C3D519685A
:10278000C906C0D51968C906BDD51968C906F3D4EC
:10279000B9E70BB0F0BDC046F0B583B00127FD0529
:1027A000094E3560094C2046FFF7B2FB35612046E3
:1027B000FFF7AEFB35603C02054D2C6102977E02AF
:1027C0002E61044F08E0C04690320A4000127A00A1
:1027D00090520A40109146403868C00608D53868C3
:1027E000C00605D53868C00602D53868C006F3D4DF
:1027F000AE2038633868C00608D53868C00605D5ED
:102800003868C00602D53868C006F3D42E602C6044
:102810002C612E613868C00608D53868C00605D519
:102820003868C00602D53868C006F3D40220386381
:102830003968C90608D53968C90605D53968C90691
:1028400002D53968C906F3D42E602C602C612E6144
:102850003968C90608D53968C90605D53968C90671
:1028600002D53968C906F3D410210191396339685A
:10287000C90608D53968C90605D53968C90602D51B
:102880003968C906F3D42E602C602C612E6139683A
:10289000C90608D53968C90605D53968C90602D5FB
:1028A0003968C906F3D440223A633968C90608D5A5
:1028B0003968C90605D53968C90602D53968C90617
:1028C000F3D42E602C602C612E613968C90608D5BE
:1028D0003968C90605D53968C90602D53968C906F7
:1028E000F3D4812139633968C90608D53968C90626
:1028F00005D53968C90602D53968C906F3D42E60F2
:102900002C602C612E613968C90608D53968C90662
:1029100005D53968C90602D53968C906F3D4CF216F
:1029200039633968C90608D53968C90605D53968D3
:10293000C90602D53968C906F3D42E602C602C6113
:102940002E613968C90608D53968C90605D53968C0
:10295000C90602D53968C906F3D4A121396339689B
:10296000C90608D53968C90605D53968C90602D52A
:102970003968C906F3D42E602C602C612E61396849
:10298000C90608D53968C90605D53968C90602D50A
:102990003968C906F3D4C82139633968C90608D52E
:1029A0003968C90605D53968C90602D53968C90626
:1029B000F3D42E602C602C612E613968C90608D5CD
:1029C0003968C90605D53968C90602D53968C90606
:1029D000F3D4A62139633B68DB0608D53B68DB06E8
:1029E00005D53B68DB0602D53B68DB06F3D42E60D9
:1029F0002C602C612E613B68DB0608D53B68DB064A
:102A000005D53B68DB0602D53B68DB06F3D4A8237B
:102A10003B633B68DB0608D53B68DB0605D53B68B6
:102A2000DB0602D53B68DB06F3D42E602C602C61FC
:102A30002E613B68DB0608D53B68DB0605D53B68A5
:102A4000DB0602D53B68DB06F3D43F233B633B68E0
:102A5000DB0608D53B68DB0605D53B68DB0602D5FF
:102A60003B68DB06F3D42E602C602C612E613B6842
:102A7000DB0608D53B68DB0605D53B68DB0602D5DF
:102A80003B68DB06F3D4D3233B633B68DB0608D506
:102A90003B68DB0605D53B68DB0602D53B68DB06F9
:102AA000F3D42E602C602C612E613B68DB0608D5C8
:102AB0003B68DB0605D53B68DB0602D53B68DB06D9
:102AC000F3D400233B633B68DB0608D53B68DB0699
:102AD00005D53B68DB0602D53B68DB06F3D42E60E8
:102AE0002C602C612E613B68DB0608D53B68DB0659
:102AF00005D53B68DB0602D53B68DB06F3D4D5235E
:102B00003B633B68DB0608D53B68DB0605D53B68C5
:102B1000DB0602D53B68DB06F3D42E602C602C610B
:102B20002E613B68DB0608D53B68DB0605D53B68B4
:102B3000DB0602D53B68DB06F3D480233B633B68AE
:102B4000DB0608D53B68DB0605D53B68DB0602D50E
:102B50003B68DB06F3D42E602C602C612E613B6851
:102B6000DB0608D53B68DB0605D53B68DB0602D5EE
:102B70003B68DB06F3D4D9233B633B68DB0608D50F
:102B80003B68DB0605D53B68DB0602D53B68DB0608
:102B9000F3D42E602C602C612E613B68DB0608D5D7
:102BA0003B68DB0605D53B68DB0602D53B68DB06E8
:102BB000F3D4F1233B633B68DB0608D53B68DB06B7
:102BC00005D53B68DB0602D53B68DB06F3D42E60F7
:102BD0002C602C612E613B68DB0608D53B68DB0668
:102BE00005D53B68DB0602D53B68DB06F3D4DA2368
:102BF0003B633B68DB0608D53B68DB0605D53B68D5
:102C0000DB0602D53B68DB06F3D42E602C602C611A
:102C10002E613B68DB0608D53B68DB0605D53B68C3
:102C2000DB0602D53B68DB06F3D412233B633B682B
:102C3000DB0608D53B68DB0605D53B68DB0602D51D
:102C40003B68DB06F3D42E602C602C612E613B6860
:102C5000DB0608D53B68DB0605D53B68DB0602D5FD
:102C60003B68DB06F3D4DB233B633B68DB0608D51C
:102C70003B68DB0605D53B68DB0602D53B68DB0617
:102C8000F3D42E602C602C612E613B68DB0608D5E6
:102C90003B68DB0605D53B68DB0602D53B68DB06F7
:102CA000F3D43A633A68D20608D53A68D20605D515
:102CB0003A68D20602D53A68D206F3D42E602C6068
:102CC0002C612E613A68D20608D53A68D20605D53D
:102CD0003A68D20602D53A68D206F3D420223A6383
:102CE0003A68D20608D53A68D20605D53A68D206BF
:102CF00002D53A68D206F3D42E602C602C612E6186
:102D00003A68D20608D53A68D20605D53A68D2069E
:102D100002D53A68D206F3D438633868C00608D5BD
:102D20003868C00605D53868C00602D53868C006C0
:102D3000F3D42E602C602C612E613868C00608D553
:102D40003868C00605D53868C00602D53868C006A0
:102D5000F3D48D2038633868C00608D53868C006BB
:102D600005D53868C00602D53868C006F3D42E6091
:102D70002C602C612E613868C00608D53868C00602
:102D800005D53868C00602D53868C006F3D41420CB
:102D900038633868C00608D53868C00605D5386875
:102DA000C00602D53868C006F3D42E602C602C61B2
:102DB0002E613868C00608D53868C00605D5386861
:102DC000C00602D53868C006F3D4A420386338683A
:102DD000C00608D53868C00605D53868C00602D5D3
:102DE0003868C006F3D42E602C602C612E613868E0
:102DF000C00608D53868C00605D53868C00602D5B3
:102E00003868C006F3D439633868C00608D5386816
:102E1000C00605D53868C00602D53868C006F3D4A8
:102E20002E602C602C612E613868C00608D5386889
:102E3000C00605D53868C00602D53868C006F3D488
:102E4000AF2139633868C00608D53868C00605D593
:102E50003868C00602D53868C006F3D42E602C60EE
:102E60002C612E613868C00608D53868C00605D5C3
:102E70003868C00602D53868C006F3D400913963BB
:102E80003868C00608D53868C00605D53868C00659
:102E900002D53868C006F3D42E602C60FFF7C2FA62
:102EA0002C612E613868C00608D53868C00605D583
:102EB0003868C00602D53868C006F3D40098386375
:102EC0003868C00608D53868C00605D53868C00619
:102ED00002D53868C006F3D42E602C602C612E61B8
:102EE0003868C00608D53868C00605D53868C006F9
:102EF00002D53868C006F3D4019838633868C00634
:102F000008D53868C00605D53868C00602D53868C7
:102F1000C006F3D42E602C602C612E613868C00688
:102F200008D53868C00605D53868C00602D53868A7
:102F3000C006F3D4029838633868C00608D53868EC
:102F4000C00605D53868C00602D53868C006F3D477
:102F50002E602C6003B0F0BDF0B501252B02924C21
:102F600023616D0225618609022737408F4E346840
:102F7000E40608D53468E40605D53468E40602D5CD
:102F80003468E406F3D4C9195039C9B23163203A20
:102F90003168C90608D53168C90605D53168C90642
:102FA00002D53168C906F3D47F4F3D603B603B6179
:102FB0003D613168C90608D53168C90605D5316853
:102FC000C90602D53168C906F3D440B2C117884397
:102FD000010910240C4334633168C90608D53168EF
:102FE000C90605D53168C90602D53168C906F3D4CA
:102FF0003D603B603B613D613168C90608D5316881
:10300000C90605D53168C90602D53168C906F3D4A9
:103010000E210840401C30633068C00608D5306877
:10302000C00605D53068C00602D53068C006F3D4A6
:103030003D603B603B603D61D1B2062048435C4946
:103040000A5C3468E40608D53468E40605D53468BB
:10305000E40602D53468E406F3D432633268D2065B
:1030600008D53268D20605D53268D20602D5326854
:10307000D206F3D43D603B603B603D610818417867
:103080003268D20608D53268D20605D53268D20633
:1030900002D53268D206F3D431633168C90608D547
:1030A0003168C90605D53168C90602D53168C90637
:1030B000F3D43D603B603B603D6181783268D2066D
:1030C00008D53268D20605D53268D20602D53268F4
:1030D000D206F3D431633168C90608D53168C90610
:1030E00005D53168C90602D53168C906F3D43D60FB
:1030F0003B603B603D61C1783268D20608D53268DA
:10310000D20605D53268D20602D53268D206F3D48B
:1031100031633168C90608D53168C90605D53168FB
:10312000C90602D53168C906F3D43D603B603B60F7
:103130003D6101793268D20608D53268D20605D5DC
:103140003268D20602D53268D206F3D431633168D0
:10315000C90608D53168C90605D53168C90602D542
:103160003168C906F3D43D603B603B603D61407906
:103170003168C90608D53168C90605D53168C90660
:1031800002D53168C906F3D430633068C00608D56B
:103190003068C00605D53068C00602D53068C00664
:1031A000F3D43D603B60F0BD90520A401091464020
:1031B0008C4E0000F0B589B005AC07C4002B65D07B
:1031C0001C460E9859429A1E009240080490581EC0
:1031D00002900026C8B203902D4D08963746019301
:1031E00011E00120089030200143CAB23046049912
:1031F000484305994018C0B20699FFF7ADFE7F1C01
:10320000761CA64242D0FF20B8430399884201D1E0
:10321000012120E0F04300190099891BC9B203295C
:1032200001D2012108E0FC22024000230121694370
:103230001B1DDCB29442FAD103221040019C0AD03B
:10324000012801D10A2005E0022802D07D20C0001B
:1032500000E064204143079801F0C2FA0A21FDF71B
:10326000AFF808980028BED10298B042BBDD002913
:10327000B7D130460499484305994018C0B220227E
:103280000699FFF769FE00200890B8E709B0F0BD85
:1032900010270000F0B581B000921278002A1AD0F1
:1032A0000D4606460024274606E07F1CF9B2009A28
:1032B000525C002A06460ED0F0B2E9B2D2B2FFF755
:1032C0004BFE0836F1B27829204600D830467829DE
:1032D000EBD9AD1CE9E701B0F0BD0000B0B50124A9
:1032E000A0071449FEF7F4FD1348C16F134A0A40C2
:1032F00013495118C16713490A68134B13400B60F7
:1033000000228A6722021346F433CB600B68134312
:103310000B601F23DB020D689D43E302EB180B607B
:1033200001681143016009490C60816F2143816785
:10333000B0BDC0462454000088100040FEFFECFFE2
:103340000100120008110040F8FFE0E00004004016
:1033500080B506480649FEF7E1FD064802210160F6
:103360000548016801220A43026080BD00800140D7
:103370002C540000008401400091014080B50E48AB
:103380000221016202680A4302600C480121024ADC
:10339000FEF708FE80BDC0464C54000080B50648CC
:1033A0000121016202680A43026004480021044AC4
:1033B000FEF7F8FD80BDC04628B0424000A0424064
:1033C0006454000080B5FFF7D9FFFFF7E7FF80BD29
:1033D00070B542480146103900220A6001460C3996
:1033E0000A608221C1603E4A02610346343B196093
:1033F000014630390A608B218160416039490A46B3
:103400003C3A832313608364374B9A1C4264426CBA
:103410004264364C236022682260354AC2630264EB
:103420000D46303D2A600D46243D2A604A622546FD
:103430000C3D2A602546083D2A60251F2A6022642B
:103440008125656442628262C26202630B600E681B
:103450000E600B610E690E610B620E6A0E628B626A
:103460008B6A8B62CD60A564E264224B03600468C2
:1034700004604361436943618561084638380560EB
:10348000084634380560084628380560081F05607E
:103490008D60194819490161813A02601849016437
:1034A0001848194901611D21890601601749016405
:1034B0000120C00716490A6802430A6015490A6AD2
:1034C00002430A620A6802430A60032000021249AA
:1034D0000861C0220A60C030086470BD3880424074
:1034E00082000400C080424081000E0010814240F2
:1034F0008100020081000C0090120A40007241001D
:103500000072430090320A40C033C000C033C07420
:10351000A0330A4028300A4090520A4010B50D4CA2
:103520000D492046FEF7ACFD0C492046FEF786FD0E
:103530000B4841681D4A0A40D11C41608168122233
:103540000A432D218A438260016801220A430260F6
:1035500010BDC046008046407C5400007E540000F0
:103560000491464010B50D4C0D492046FEF788FDEC
:103570000C492046FEF762FD0B4841680B4A0A40A1
:10358000111D4160816812220A432D218A43826005
:10359000016801220A43026010BDC04600A04640F7
:1035A000885400008A54000004B1464000FCFFFF2C
:1035B000F0B581B01F48002404600F2630021E4D74
:1035C00029688143012778020090081828600320A9
:1035D000C1432A1F13680B4013606968B9436960CF
:1035E00039026A688A436A6000030A212246FEF7AC
:1035F000D1FD1248FEF74EFD29681020014320221C
:103600009143296031036A6B8A43092109035118E8
:10361000696339032A680A432A60A96B0143A963D5
:10362000686B0099084368632046FEF7F9FD01B016
:10363000F0BDC04608030B4004010B409454000049
:1036400010B50C4C0C492046FEF792FE0B49204663
:10365000FEF70EFE0A48012101600A4802680A438B
:103660000260094A1160036B0B4303630220506040
:1036700010BDC04600400840BC540000C0540000CB
:1036800008510840585008404444084010B50B4CBD
:103690000B492046FEF76CFE0A492046FEF7E8FD7E
:1036A0000948016801221143016008490A60016B61
:1036B0001143016306480321016010BD00208640CC
:1036C000D4540000D8540000283086400831864089
:1036D0004424864010B5084C08492046FEF748FEB1
:1036E00007492046FEF7C4FD064801680122114340
:1036F00001600548026010BD00008640EC540000E7
:10370000F0540000281086400811864010B50E487D
:1037100007220261036803210B4303600B4B1C6803
:10372000640708D41C68640705D41C68640702D4C5
:103730001C686407F3D504249C6112020368934358
:1037400009025918016010BD0051444030504440F6
:1037500010B5124C12492046FEF73CFE1149204696
:10376000FEF714FE0320C1030F4802688A4302607B
:103770000169244A0A401532026141692D220A4337
:1037800012218A43426141680122114043689343F8
:103790005918416001681143016010BD008010405C
:1037A00004550000065500000091104010B5A74CCC
:1037B00011492046FEF70EFE10492046FEF7E6FDB1
:1037C0000320C1030E4802688A43026001690D4A62
:1037D0000A401532026141692D220A4312218A43AF
:1037E0004261416801221140436893435918416086
:1037F00001681143016010BD105500001255000012
:10380000001110400000FFFF80B500F033F8FFF713
:10381000DFFDFFF7CDFEFFF713FFFFF737FFFFF7E1
:1038200059FFFFF7C3FFFFF793FFFFF777FEFFF79F
:1038300099FEFFF753FDFFF7C5FDFFF767FFFFF7A1
:1038400087FDB820064900220A5406490A5424205C
:1038500005490A5405490A540548027380BDC0460B
:10386000E405202028052020D80420200005202061
:10387000A0062020F0B581B01A481B4A42601B48C0
:1038800042601B4842601B4842601B4842601B4824
:1038900042601B4842601B4E72601B4D6A601B4CAD
:1038A00062601B4B5A60901E1A4948601A48426079
:1038B0001A4A0C4F3A600D4F3A600D4F3A600D4F67
:1038C0003A600D4F3A600D4F3A600D4F3A603260EA
:1038D0002A6022601A600A6002601020FEF718FB5E
:1038E00001B0F0BD00080A40030000B100280A4002
:1038F00000480A40004808400028864000088640EA
:1039000000081040008810400088464000A846404B
:1039100000080040004844400088014001000026A3
:10392000F0B583B00D460646484C42212046FEF7CE
:103930005BFD142000F094F8684645493246FCF7D8
:1039400051FC012808DB06466F4639782046FEF711
:103950004BFD7F1C761EF8D1322000F081F86846BE
:103960003B492A46FCF73EFC012808DB05466E462B
:1039700031782046FEF738FD761C6D1EF8D103B075
:10398000F0BDC046F0B583B00D4606462F4C43212E
:103990002046FEF729FD142000F062F868462C4905
:1039A0003246FCF71FFC012808DB06466F463978D3
:1039B0002046FEF719FD7F1C761EF8D1322000F05C
:1039C0004FF8684622492A46FCF70CFC012808DB20
:1039D00005466E4631782046FEF706FD761C6D1EC4
:1039E000F8D103B0F0BDC046F0B583B00D46064631
:1039F000164C45212046FEF7F7FC142000F030F865
:103A0000684613493246FCF7EDFB012808DB064601
:103A10006F4639782046FEF7E7FC7F1C761EF8D10A
:103A2000322000F01DF8684609492A46FCF7DAFB07
:103A3000012808DB05466E4631782046FEF7D4FCA7
:103A4000761C6D1EF8D103B0F0BDC04600001040DA
:103A50001C55000001204003864908607047C0469D
:103A600080B502494843FEF753FA80BD8038010013
:103A7000F0B587B07F48402404611920C00103904D
:103A8000FEF746FA012739057B4D2868C0020491EC
:103A900005D42868084202D10123002001E0002358
:103AA00038463A062968C901029206D429681142AB
:103AB00003D102210691002101E0069339467B06DD
:103AC0002A689201019306D42A681A4203D103227C
:103AD0000692002200E03A46FE062B681B0104D441
:103AE0002B68334201D1002074E005960840104055
:103AF000604804600FD0802404610398FEF708FA40
:103B000028680499084208D12868084205D1012094
:103B10000690002002E0002077E03846029A019BE0
:103B20002968114206D12968114203D10221069168
:103B3000002100E039462A681A4206D12A681A4252
:103B400003D103220692002200E03A462B68059E2C
:103B5000334205D12B68059E334201D1042039E060
:103B600008401040434804600FD00126340204612D
:103B70000398FEF7CDF928680499084207D1286810
:103B8000084204D10020069602E004203DE03846B9
:103B9000029A019B2968114206D12968114203D17A
:103BA00002210691002100E039462A681A42009657
:103BB00006D12A681A4203D103220692002200E0AD
:103BC0003A462B68059E334208D12B68059E334246
:103BD00004D1082027490C60042117E00840104058
:103BE0002448046010D000994C0204610398FEF749
:103BF0008FF92868049908420DD1286808420AD133
:103C00000D20069000200AE00820069909181B489C
:103C1000405C07B0F0BD06980C3006903846029A1A
:103C2000019B2968114206D12968114203D10E2156
:103C30000691002100E039462A681A4205D12A6817
:103C40001A4202D10F22069200272A68059B1A42C7
:103C500006D12A681A4203D1064804601021D6E72B
:103C6000084038400348046001D10699CFE700219D
:103C7000CDE7C04690320A4080330A4050002020F1
:103C800000B593B000250F950E950D950C95FFF797
:103C9000BBFDFFF7DFFEFEF77FFDCF480090092058
:103CA000772208232946FEF771FC7D24A0000190AD
:103CB000FFF7D6FEFEF7B6FB00F0BCFCE00002907A
:103CC00064200890322006900A200490C34807958B
:103CD0002E4603902C4609952F46062C00D9A3E2C8
:103CE000A00001A108588746053D0000473D00009F
:103CF000573D00008F3D000029420000294200008E
:103D0000DF3D0000FFF7B4FE4E28099CE5D00546D4
:103D10004138C0B2032800D995E0B1482946FEF7E2
:103D200063FB1420FFF79CFE432D00D102E2422DDD
:103D300000D126E2412D00D060E2FEF773FB00F0D7
:103D4000D5FC01246DE20B97FFF792FE01244E286B
:103D50004DD10B9F68E2FFF78BFE02244E2800D165
:103D600062E20546014630390E98092900D98DE0F6
:103D70009C4A904200D089E00A960EA80021079143
:103D8000017018200221984AFFF784FA81E0FFF7BA
:103D90006FFE03244E2800D146E20546303809283C
:103DA00000D98BE00CA8FCF7C9FAC0B2052800D9ED
:103DB000A4E30A960CAE3554301800214170182542
:103DC0000B97022728463946884AFFF763FA2846A8
:103DD00039460B9F32460A9EFFF75CFA8EE33D465A
:103DE000FFF746FE06244E2817D12F461CE2074651
:103DF000303809287ED87E480B99814200D3BAE03A
:103E0000102000900A204843C719303F00200623A5
:103E100001463A46FFF7CEF9C7E30746303809288E
:103E200000D988E07248854200D3A6E010200090B7
:103E30000A206843C719303F0020062301463A464E
:103E4000FFF7B8F98BE22A2D099C00D045E7FEF771
:103E5000E9FA00F085FC1020009000250B9737460A
:103E6000642606242846294632462346FFF7A2F94F
:103E7000362029465F4AFFF70DFA32210896304670
:103E80003E460B9F0691FFF7AFFDCAE1092976D8A0
:103E90000A960EA8FCF752FAC6B2032E0CD8079861
:103EA000002800D11DE10EA82E21FCF73DFAFCF7F9
:103EB00045FA012800D828E10A9ECAE2412D00D027
:103EC000AAE00CA8FCF73AFA002E00D016E3C0B224
:103ED000002800D112E3042800D90FE30CAA2E21F8
:103EE000115410180021417018200221FFF7D2F957
:103EF000012603E33846413802280A9600D9ADE08E
:103F00001020009000250623284629460B9AFFF72B
:103F100051F9432F059500D1E8E1422F089A00D1CD
:103F2000EBE1412F00D0F0E136200021314AFFF7CC
:103F3000B1F90B9AE9E138464138022800D9ABE0E3
:103F40001020009000200623059001462A46FFF726
:103F500031F9432F00D1ECE1422F00D1F0E1412FA4
:103F6000089A059F00D0F4E13620002122A2FFF735
:103F700091F92A46EDE10F4617E32F46EFE1294676
:103F80002339202900D964E24900C0467944898850
:103F900049008F4435005E025E025E025E025E02F0
:103FA0005E0235005E025E025E025E025E025E023C
:103FB0005E025E025E025E025E025E025E025E0201
:103FC0005E025E025E025E025E025E025E025E02F1
:103FD000EE015E020602C046B450000040420F00EF
:103FE00000001040312E3000225500002055000006
:103FF000809698002D550000487A2020202020002F
:10400000102000900499C8B2642800D2F6E1084656
:104010002A2D00D0F6E1F6E1FE202840422800D00B
:1040200022E10CA80078002800D167E20CAE10AAAB
:104030003046F849FCF758F9422DF74900D0F749C6
:10404000109800F069FEFCF7BAFAF5490860422DB5
:104050000B970A9600D127E2F2A226E2232F089EB0
:1040600000D112E12A2F00D09DE2F048401E864286
:10407000FE4800D94DE2401E8642FD4800D948E284
:10408000401E8642029800D943E20298401E8642B2
:1040900000D93DE20A203CE20A96232F069E00D179
:1040A0000AE12A2F00D01EE110200090F0B264280F
:1040B00000D20A362F46F6B2642E00D3642638208A
:1040C0000425032329463246FFF774F86020294669
:1040D000E84AFFF7DFF8089806963146FFF784FCB8
:1040E00002E1002E11D00EA908783038012E04D03C
:1040F0000A224243487810183038302D05D009285C
:1041000003DD002007900A9EA3E10B970EAFBD557B
:10411000B819002141701825022628463146D64A92
:10412000FFF7B8F8284631463A460B9FFFF7B2F83A
:104130000A9E8EE1FEF776F9D048D14D2860CB4833
:10414000C94E30600CA80027077038463946CD4A62
:10415000FFF7A0F802213846CB4AFFF79BF804246A
:1041600038462146C94AFFF795F830202146C84A0B
:10417000FFF790F8296830683E46FFF703FC0324F8
:104180004FE0FEF74FF9C3480E900B9700273846D3
:104190003946C14AFFF77EF8022438462146BA4A1A
:1041A000FFF778F848202146BC4AFFF773F804254A
:1041B00038462946BA4AFFF76DF8302025222946AD
:1041C000FEF7CAFE18270EAA38462146FFF762F806
:1041D000102000900A960A26032338460B9F294692
:1041E0003246FEF7E7FFFB4D2846049631460A9E0D
:1041F000FFF796FB01200790039512E0FEF712F9F6
:10420000002420462146EE4AFFF744F802212046CA
:10421000EC4AFFF73FF804212046A24AFFF73AF89C
:1042200005243220FFF71CFCFFF722FC442800D0B5
:1042300053E5FEF7F7F800F0FDF90CA8002606702C
:104240003220FFF70DFCFFF713FC4E2834463746AB
:1042500000D142E50A20FFF703FCFFF709FC4E28D6
:10426000F8D13446374638E52A2D00D046E1E148FA
:104270000068D54A9042D54900D01146DD4B1960FF
:10428000904200D12FE1DE4A2EE1D248401E864204
:10429000CF4800D964E1401E8642CC4800D95FE196
:1042A000401E8642029800D95AE10298401E86427A
:1042B00000D954E10A2053E110200090F6B20A3EE2
:1042C00000D2002638200427032339463246FEF761
:1042D00071FF60203946C24AFEF7DCFF0898069657
:1042E0003146FFF781FB2F460A9E38E03620002139
:1042F000CE4AFEF7CFFFB74805E036200021CC4A72
:10430000FEF7C8FF02980B9A424310A8C6490892CC
:10431000FBF768FF0128B14D08DB074610AE317886
:104320002846FEF761F8761C7F1EF8D10A9E059F8D
:104330003BE136200021ABA2FEF7ACFFA54805E02B
:1043400036200021A9A2FEF7A5FF029845432A4680
:10435000059F0698C1B208921046FFF745FB322030
:10436000FFF77EFBFFF784FB4E2800D15CE70A20B5
:10437000F6E70EA8FBF7E2FF0799002969D1C0B262
:10438000002866D0022864D80EAA2E2111541018D5
:104390000021417018200221FEF77CFF01200790C8
:1043A00057E0000655D00EA8059010AA9649FBF7D5
:1043B0009BFF1098954900F0AFFCFCF700F902460E
:1043C0000498C1B203921046FFF7AAFA0A96602633
:1043D0003D4602273046394690A2FEF75BFF019822
:1043E000FFF73EFB30460A9E39462F468CA2FEF769
:1043F00051FF00200790059908702AE008460A300E
:104400002A2D00D00846010612D10146232D13D1D2
:1044100013E0C0464755000000007A440024744968
:104420004C0020204D487A200000000040420F0040
:1044300001460A39232D00D001460491CDB218203F
:10444000042103232A46FEF7B5FE03982946FFF709
:1044500067FA3220FFF704FBFFF70AFB4E2800D172
:10446000E2E60A20F6E7C0464C002020A0860100C4
:104470001027000027550000225500008813000077
:1044800048002020545500003E55000042550000D1
:104490002B550000312E30004A55000073550000A6
:1044A0003A5500003155000059A2482002252946FE
:1044B000FEF7F0FE182630462946574AFEF7EAFE78
:1044C000504F3A6810200090062330462946FEF7E8
:1044D00071FE484801683868FFF754FA00260A98C8
:1044E00006700B9F0AE044A230200421FEF7D2FEA2
:1044F0004048016843480068FFF744FA3220FFF75C
:10450000AFFAFFF7B5FA4E2800D18DE60A20F6E79C
:1045100064201021009186192F48864200D32E4E28
:1045200000250623284629463246FEF743FE36205C
:1045300029463C4AFEF7AEFE10A83B490896324693
:10454000FBF750FE0128254F2DDB054610AE3178D4
:104550003846FDF749FF761C6D1EF8D123E0642034
:1045600010210091361A00D864260025062328461B
:1045700029463246FEF71EFE36202946294AFEF716
:1045800089FE10A8284908963246FBF72BFE012821
:10459000124F08DB054610AE31783846FDF724FF90
:1045A000761C6D1EF8D10B9F0A9E3220FFF758FA39
:1045B000FFF75EFA4E2800D136E60A20F6E7C0463D
:1045C0005E5500006B5500008813000010270000A6
:1045D000A086010040420F00809698000000104025
:1045E000275500004D487A20202020006B487A2073
:1045F000202020004800202031306B487A00000045
:104600002B5500004C002020475500000024744921
:104610006B487A2000000000205500004F4B00003E
:10462000202000002D5500001C550000735500008F
:1046300077550000F0B583B0002441222046214682
:10464000FEF78AFC08273A2638460197214632466B
:104650000296FEF781FC102000901CA22146FEF776
:1046600019FE0225422220462946FEF775FC3846EF
:1046700029463246FEF770FC194A009F3846294603
:10468000FEF708FE0425432220462946FEF764FC77
:10469000019E30462946029AFEF75EFC114A3846D2
:1046A0002946FEF7F7FD0625442220462946FEF757
:1046B00053FC30462946029AFEF74EFC0A4A384619
:1046C0002946FEF7E7FD03B0F0BDC04653696E65AD
:1046D0002077617665207369676E616C0000000069
:1046E0004A550000545500005E550000F0B583B0F7
:1046F000002502244122284602952146FEF72CFC83
:1047000008273A26384621463246FEF725FC102077
:104710000190304A2146FEF7BDFD0424422228467E
:104720002146FEF719FC384621463246FEF714FCB6
:10473000294A019D28462146FEF7ACFD0624432266
:1047400002982146FEF708FC384621463246FEF71D
:1047500003FC224A28462146FEF79CFD03B0F0BD2B
:10476000F0B583B000250224412228460295214657
:10477000FEF7F2FB08273A26384621463246FEF776
:10478000EBFB10200190134A2146FEF783FD042421
:10479000422228462146FEF7DFFB384621463246B4
:1047A000FEF7DAFB0C4A019D28462146FEF772FD12
:1047B0000624432202982146FEF7CEFB38462146C6
:1047C0003246FEF7C9FB054A28462146FEF762FD40
:1047D00003B0F0BD78550000775500007355000018
:1047E00043088B421AD3002203098B4279D3030A70
:1047F0008B425ED3030B8B4242D3030C8B4227D3F5
:104800000902FF2212BA030C8B4202D312120902D0
:1048100003D0030B8B4233D31AE0D3E0411A80411B
:10482000401C704703460B4371D443088B42F5D3B9
:10483000002203098B4254D3030A8B4239D3030B62
:104840008B421DD3030C8B4202D394466EE0090ABF
:10485000C30B8B4201D3CB03C01A5241830B8B4253
:1048600001D38B03C01A5241430B8B4201D34B033C
:10487000C01A5241030B8B4201D30B03C01A5241A1
:10488000C30A8B4201D3CB02C01A5241830A8B4226
:1048900001D38B02C01A5241430A8B4201D34B020F
:1048A000C01A5241030A8B4201D30B02C01A524173
:1048B000CDD2C3098B4201D3CB01C01A5241830927
:1048C0008B4201D38B01C01A524143098B4201D361
:1048D0004B01C01A524103098B4201D30B01C01A8C
:1048E0005241C3088B4201D3CB00C01A5241830806
:1048F0008B4201D38B00C01A524143088B4201D333
:104900004B00C01A5241411A524110007047CA0F61
:1049100000D04942031000D34042534000229C463D
:1049200003098B422DD3030A8B4212D38901FC2247
:1049300012BA030A8B420CD3890192118B4208D31D
:10494000890192118B4204D3890137D0921100E082
:104950008909C3098B4201D3CB01C01A5241830993
:104960008B4201D38B01C01A524143098B4201D3C0
:104970004B01C01A524103098B4201D30B01C01AEB
:104980005241C3088B4201D3CB00C01A5241830865
:104990008B4201D38B00C01A5241D9D243088B42BB
:1049A00001D34B00C01A5241411A00D20146524174
:1049B000104663465B1000D34042704763465B106D
:1049C00000D3404201B50021004201D0C94308464E
:1049D000C046C04602BDF8B5040C8BB2264682B272
:1049E0005E43104658430D0C370C360400218019E5
:1049F000164679416E43370C3604801926467941B4
:104A00006E438919F8BD000010B50721024A002045
:104A10000907FDF7D5F910BD01030000034A10B5E1
:104A200000201107FDF7CCF910BD000001FDFFFFCC
:104A300010B504460868496800F002F8206010BD0F
:104A4000F8B504460D466A4600F070F800987E30CE
:104A5000009000281CDC002213462046294600F066
:104A6000F5F815D0264E002130460020C0460746F6
:104A700020462946FDF706F90446374039463046B8
:104A80000020C04660002FD10220FCF75CFE2BE026
:104A90000098FF282EDB002108460020C046032195
:104AA000890508400646002213462046294600F0A4
:104AB000FFF801D8012500E000250220FCF743FEA5
:104AC000FF24E405002E09D0002D02D0012080052E
:104AD00001E00120C005B04200D00A4C0421084684
:104AE0000020C046002D01D02046F8BD0120C0079F
:104AF0006040F8BD20462946FDF7C4F8F8BD000027
:104B000008080000FFFF7F7F10B504460A460068D2
:104B1000616800F037F86160206010BD30380A2805
:104B200001D20120704700207047000070B5144684
:104B3000002222604B000F4A5B08934219DA0246BA
:104B40001A4316D001221205934201DB226807E0C6
:104B50003622FDF735F94B005B083522D24322603F
:104B6000054D1B0D5B19D2182260044A1140044AFE
:104B7000891870BD0000F07F02FCFFFFFFFF0F806F
:104B80000000E03F70B50546080DC04316460C46D0
:104B900040052CD000221346284600F057F826D0B6
:104BA000324628462146FDF70BF90546080DC0435D
:104BB0000C46400510D000221346284600F046F867
:104BC00015D10220FCF7BFFDFFF728FF4900490877
:104BD000E20FD207114370BD0220FCF7B4FDFFF7CE
:104BE00013FF49004908E20FD207114370BD284660
:104BF000214670BD10B500290AD00878002807D0DA
:104C000005487844FCF7E6FF002801D0002010BDDD
:104C10000248784410BD0000AE090000A60900005B
:104C200010B500290AD00878002807D00548784434
:104C3000FCF7D0FF002801D0002010BD02487844C6
:104C400010BD00009E0900009609000070B5012506
:104C50002D050C001C4310D4EC4206D4AC420AD4FF
:104C6000994200D070BD904270BDE94217D4EB422A
:104C700015D4994270BD894270BDEC4206D5AC4254
:104C8000F9D58B4200D070BD824270BD6D004C00E2
:104C9000EC4204D25C00EC4201D28B4270BD034C6A
:104CA00030B4FDF73DF830BC70BD00BF19001204F0
:104CB00070B501252D051C000C4310D4EC4206D420
:104CC000AC420AD48B4200D070BD824270BDEB4230
:104CD00017D4E94215D48B4270BD9B4270BDEC42A3
:104CE00006D5AC42F9D5994200D070BD904270BD56
:104CF0006D005C00EC4204D24C00EC4201D29942BF
:104D000070BD0FB40CBC03BC024C30B4FDF708F806
:104D100030BC70BD1900160470B5420064414B00F0
:104D20005C41120E39D01B0E38D0FF2A3CD0FF2B2D
:104D30003AD0D2187F3A40024902400A490A45183F
:104D4000ED0106004E43000A090A48430104731AA4
:104D50004019190C4318990F04D05B080121490729
:104D60005B1A521CD80904D3401CF50301D19D06DF
:104D700007D0FF2A08D2D50506D0E4072043401902
:104D800070BD0125A843F4E7002A01DCE00770BDEF
:104D90002402FF202043C00570BD1B0EFF2A03D054
:104DA000FF2B01D0E00770BDFF2636064500B54257
:104DB00006D84D00B54203D8D218FF2A00D0E7E745
:104DC000004870BD0000C07F03B4024878448446A8
:104DD00003BC604767BBFFFF03B4024878448446C6
:104DE00003BC604775C9FFFF03B40248784484469A
:104DF00003BC604799CCFFFF02400000000000A008
:104E00000000000005400000000000C80000000095
:104E10000C4000000000409C000000001940000011
:104E20000020BCBE0000000034400000BFC91B8E43
:104E300000000004B5400000504BCFD06607E2CF21
:104E4000010000006C4100003E8251AADFEEA73451
:104E500001000000D9420000DCB5A0E23A301F9703
:104E6000FFFFFFFFB4450000FD25A0C8E9A3C14F27
:104E7000FFFFFFFFFF3F0000000000800000000078
:104E8000FF3F000000000080000000000000000064
:104E900000000000002F00000000070007000014C1
:104EA0007F147F1400242A7F2A12006264081323CF
:104EB00000364955225000000503000000001C2266
:104EC0004100000041221C000014083E08140008A4
:104ED000083E0808000000A0600000080808080854
:104EE000000060600000002010080402003E5149EC
:104EF000453E0000427F400000426151494600218A
:104F000041454B31001814127F10002745454539A3
:104F1000003C4A49493000017109050300364949FE
:104F2000493600064949291E0000363600000000B7
:104F30005636000000081422410000141414141402
:104F400000004122140800020151090600324959AB
:104F5000513E007C1211127C007F49494936003EC7
:104F600041414122007F4141221C007F4949494182
:104F7000007F09090901003E4149497A007F08087C
:104F8000087F0000417F4100002040413F01007F39
:104F900008142241007F40404040007F020C027F05
:104FA000007F0408107F003E4141413E007F090917
:104FB0000906003E4151215E007F0919294600463D
:104FC000494949310001017F0101003F4040403F14
:104FD000001F2040201F003F4038403F006314085E
:104FE0001463000708700807006151494543000039
:104FF0007F41410000552A552A55000041417F005C
:105000000004020102040040404040400000010250
:105010000400002054545478007F48444438003839
:105020004444442000384444487F003854545418C1
:1050300000087E0901020018A4A4A47C007F0804D3
:1050400004780000447D4000004080847D00007FA3
:10505000102844000000417F4000007C04180478C0
:10506000007C0804047800384444443800FC2424BC
:1050700024180018242418FC007C080404080048A4
:105080005454542000043F444020003C4040207CC5
:10509000001C2040201C003C4030403C00442810B4
:1050A0002844001CA0A0A07C004464544C44141468
:1050B00014141414000000000000000000000000A0
:1050C00000000000000000000000000000000000E0
:1050D00000000000000000000000000000000000D0
:1050E00000000000000000000000000000000000C0
:1050F00000000000000000000000000000000000B0
:105100000080FEFFFFC00000000000000000000063
:10511000000000000000000000000000000000008F
:10512000000000000000000000000000000000007F
:1051300000C0C0E0E0F0FCFEFCF0E0C0C0C0C0C0B9
:10514000C0C0C0C0C0C0C0C0C0C0C0C0C0C0C0C05F
:10515000C0C0C0C0C0C0C0C0C0E0E0F8FEFEF8E003
:10516000E0C0C00000000000000000C0C0E0F8FF88
:10517000FFFFFFFFF8E0E0C0C000000000000000FB
:10518000000000000000000000000000000000001F
:10519000000000000000000000000000000000000F
:1051A0000000FFFFFFFFFFFFFF01FCFCFCFCF8F825
:1051B000F818381F3F3F3F3F3A3838F8FCFCFCF8FE
:1051C000F87000F8F8F8F8F8F9FFFFFFFFFDFEFEB1
:1051D000FCF8F0FCFCFCFCF8F8F8381999FBFFFF30
:1051E000FFFB993938F8FCFCFCFCFCF838000000A7
:1051F00000000000000000000000000000000000AF
:10520000000000000000000000000000000000009E
:10521000FFFFFFFFFFFF7F00FFFFFFFFFF7F7F63B9
:10522000E3E3E3E3E3E3E36372FFFFFFFFFF7F00FA
:1052300000FFFFFFFFFFFFFFFFFFFFFFFEFEFEFE81
:10524000FEFFFFFFFFFFFFFFCF8F9FFFFFFFFFFF6F
:10525000DFCFCFFFFFFFFFFFFFFF000000000000D8
:10526000000000000000000000000000000000003E
:105270000000000000000000000080E0F0FE7F3F22
:105280003F1F77F9FCFCFDBF3E3E3E1E1C18BFFFD2
:10529000FFFFFFFF7F181C1E1F3E3EBEFCFCFCFFF5
:1052A0007F3F1F0FFFFFFFFFFF7F07070303000F75
:1052B0000F0F0F07032371F1F9FDFFFFFFFDF9F158
:1052C000716123070F0F1F0F000000000000000096
:1052D00000000000000000000000000000000000CE
:1052E00000000000000000000101000000000000BC
:1052F000000000000101010100000000080F0F077D
:10530000070300000000000101010101000000008E
:105310000000070F0F07030000000000000000005E
:10532000000000000000031FFFFFFF3F030000001C
:10533000000000000000000000000000000000006D
:10534000000000000000000000000000000000005D
:10535000000000000000000000000000000000004D
:10536000000000000000000000000000000000003D
:10537000000000000000000000000000000000002D
:10538000000000000000000000000000000000001D
:1053900000000000000007FF3F00000000000000C8
:1053A00000000000000000000000000000000000FD
:1053B00000000000000000000000000000000000ED
:1053C00000000000000000000000000000000000DD
:1053D00000000000000000000000000000000000CD
:1053E00000000000000000000000000000000000BD
:1053F00000000000000000000000000000000000AD
:105400000000000000070000000000000000000095
:10541000000000000000000000000000000000008C
:105420000000000000060000000000000000000175
:105430000001000000000000000201010000010066
:10544000000000010000000000000000200000003B
:10545000000000200000000000010001000000002A
:105460000000030005000000000000000000000034
:10547000000100010000030000000000080004001B
:1054800000000000071000000800040000000000F9
:1054900007100000010000000000000000000000F4
:1054A00000000000000000001000000000010000EB
:1054B00003000000000000003400C4410800630045
:1054C00002000000310000000000000000000000A9
:1054D0000000000008006300020000000900000056
:1054E00000000000000000000000000002030000B7
:1054F00002000000FF9F000000000000000000000C
:10550000000000000800000018000000003000004B
:1055100008000000180000000030000025750A0097
:105520002020202020200025202000356B487A20D4
:1055300000537465703A313025006D613A0046635E
:105540003A004465763A00256600414D207369674C
:105550006E616C00464D207369676E616C00537715
:10556000656570207369676E616C00313030487A10
:105570002D31304D487A006B487A00000000000061
:10558000E05600000000202068000000200100001C
:10559000485700006800202048260000480100000D
:1055A000000000000000F07FFFFFFFFFFFFFEF7F24
:1055B0001C00000043000000F8FFFFFF0C0000008B
:1055C0000E0000000F0000002E000000100100007F
:1055D00043000000F8FFFFFF0040404040404040D3
:1055E00040404141414141404040404040404040B6
:1055F000404040404040404040050202020202025A
:1056000002020202020202020220202020202020A8
:1056100020202002020202020202909090909090BC
:10562000101010101010101010101010101010107A
:1056300010101010020202020202888888888888EE
:1056400008080808080808080808080808080808DA
:1056500008080808020202024000000000000000E2
:10566000000000000000000000000000000000003A
:10567000000000000000000000000000000000002A
:10568000000000000000000000000000000000001A
:10569000000000000000000000000000000000000A
:1056A00000000000000000000000000000000000FA
:1056B00000000000000000000000000000000000EA
:1056C00000000000000000000000000000000000DA
:1056D00000000000000000000000000000000000CA
:1056E00000000000000000000000000000000000BA
:1056F00000000000000000000000000000000000AA
:105700000000000000000000000000000000000099
:105710000000000000000000000000000000000089
:10572000000000000000202088130000A086010077
:105730004E3132334134353642373839432A3023FB
:0857400044000000000000001D
:04000005000000C136
:00000001FF
